{
  "_format": "hh-sol-artifact-1",
  "contractName": "CollectNFTV2",
  "sourceName": "contracts/CollectNFTV2.sol",
  "abi": [
    {
      "inputs": [],
      "stateMutability": "nonpayable",
      "type": "constructor"
    },
    {
      "anonymous": false,
      "inputs": [
        {
          "indexed": false,
          "internalType": "uint256",
          "name": "poolId",
          "type": "uint256"
        },
        {
          "indexed": false,
          "internalType": "uint256",
          "name": "amount",
          "type": "uint256"
        },
        {
          "indexed": false,
          "internalType": "address payable",
          "name": "from",
          "type": "address"
        }
      ],
      "name": "CollectionFunded",
      "type": "event"
    },
    {
      "anonymous": false,
      "inputs": [
        {
          "indexed": false,
          "internalType": "uint256",
          "name": "imageId",
          "type": "uint256"
        },
        {
          "indexed": false,
          "internalType": "uint256",
          "name": "poolId",
          "type": "uint256"
        },
        {
          "indexed": false,
          "internalType": "string",
          "name": "url",
          "type": "string"
        },
        {
          "indexed": false,
          "internalType": "address payable",
          "name": "owner",
          "type": "address"
        }
      ],
      "name": "ImageCreated",
      "type": "event"
    },
    {
      "anonymous": false,
      "inputs": [
        {
          "indexed": false,
          "internalType": "uint256[]",
          "name": "imageIdList",
          "type": "uint256[]"
        },
        {
          "indexed": false,
          "internalType": "address payable",
          "name": "owner",
          "type": "address"
        }
      ],
      "name": "LootBoxResult",
      "type": "event"
    },
    {
      "anonymous": false,
      "inputs": [
        {
          "indexed": false,
          "internalType": "uint256",
          "name": "imageId",
          "type": "uint256"
        },
        {
          "indexed": false,
          "internalType": "address payable",
          "name": "owner",
          "type": "address"
        }
      ],
      "name": "PieceWon",
      "type": "event"
    },
    {
      "anonymous": false,
      "inputs": [
        {
          "indexed": false,
          "internalType": "uint256",
          "name": "poolId",
          "type": "uint256"
        },
        {
          "indexed": false,
          "internalType": "uint256",
          "name": "amount",
          "type": "uint256"
        },
        {
          "indexed": false,
          "internalType": "address payable",
          "name": "winner",
          "type": "address"
        }
      ],
      "name": "PrizeWon",
      "type": "event"
    },
    {
      "inputs": [
        {
          "internalType": "uint256",
          "name": "_poolId",
          "type": "uint256"
        },
        {
          "internalType": "string",
          "name": "_url",
          "type": "string"
        }
      ],
      "name": "addImageToPool",
      "outputs": [],
      "stateMutability": "nonpayable",
      "type": "function"
    },
    {
      "inputs": [],
      "name": "amountWon",
      "outputs": [
        {
          "internalType": "uint256",
          "name": "",
          "type": "uint256"
        }
      ],
      "stateMutability": "view",
      "type": "function"
    },
    {
      "inputs": [],
      "name": "buyLootBox",
      "outputs": [],
      "stateMutability": "payable",
      "type": "function"
    },
    {
      "inputs": [
        {
          "internalType": "uint256",
          "name": "_poolId",
          "type": "uint256"
        }
      ],
      "name": "checkWinner",
      "outputs": [
        {
          "internalType": "bool",
          "name": "",
          "type": "bool"
        }
      ],
      "stateMutability": "view",
      "type": "function"
    },
    {
      "inputs": [
        {
          "internalType": "uint256",
          "name": "_poolId",
          "type": "uint256"
        }
      ],
      "name": "claimPrize",
      "outputs": [],
      "stateMutability": "nonpayable",
      "type": "function"
    },
    {
      "inputs": [],
      "name": "createCode",
      "outputs": [
        {
          "internalType": "uint256",
          "name": "",
          "type": "uint256"
        }
      ],
      "stateMutability": "nonpayable",
      "type": "function"
    },
    {
      "inputs": [
        {
          "internalType": "string",
          "name": "_collectionName",
          "type": "string"
        },
        {
          "internalType": "string",
          "name": "_creatorName",
          "type": "string"
        },
        {
          "internalType": "string",
          "name": "_description",
          "type": "string"
        },
        {
          "internalType": "string[]",
          "name": "_urls",
          "type": "string[]"
        },
        {
          "internalType": "uint256",
          "name": "_arrLength",
          "type": "uint256"
        }
      ],
      "name": "createPool",
      "outputs": [],
      "stateMutability": "nonpayable",
      "type": "function"
    },
    {
      "inputs": [
        {
          "internalType": "uint256",
          "name": "_poolId",
          "type": "uint256"
        }
      ],
      "name": "createUserCard",
      "outputs": [],
      "stateMutability": "nonpayable",
      "type": "function"
    },
    {
      "inputs": [
        {
          "internalType": "uint256",
          "name": "_poolId",
          "type": "uint256"
        }
      ],
      "name": "fundACollection",
      "outputs": [],
      "stateMutability": "payable",
      "type": "function"
    },
    {
      "inputs": [
        {
          "internalType": "uint256",
          "name": "_poolId",
          "type": "uint256"
        },
        {
          "internalType": "uint256",
          "name": "_imageId",
          "type": "uint256"
        }
      ],
      "name": "getPoolImageId",
      "outputs": [
        {
          "internalType": "uint256",
          "name": "",
          "type": "uint256"
        }
      ],
      "stateMutability": "view",
      "type": "function"
    },
    {
      "inputs": [
        {
          "internalType": "uint256",
          "name": "_poolId",
          "type": "uint256"
        }
      ],
      "name": "getPoolImages",
      "outputs": [
        {
          "internalType": "uint256[]",
          "name": "",
          "type": "uint256[]"
        }
      ],
      "stateMutability": "view",
      "type": "function"
    },
    {
      "inputs": [],
      "name": "getPrizePool",
      "outputs": [
        {
          "internalType": "uint256",
          "name": "",
          "type": "uint256"
        }
      ],
      "stateMutability": "view",
      "type": "function"
    },
    {
      "inputs": [
        {
          "internalType": "uint256",
          "name": "_poolId",
          "type": "uint256"
        }
      ],
      "name": "getUserImages",
      "outputs": [
        {
          "internalType": "uint256[]",
          "name": "",
          "type": "uint256[]"
        }
      ],
      "stateMutability": "view",
      "type": "function"
    },
    {
      "inputs": [],
      "name": "imageCount",
      "outputs": [
        {
          "internalType": "uint256",
          "name": "",
          "type": "uint256"
        }
      ],
      "stateMutability": "view",
      "type": "function"
    },
    {
      "inputs": [
        {
          "internalType": "uint256",
          "name": "",
          "type": "uint256"
        }
      ],
      "name": "images",
      "outputs": [
        {
          "internalType": "uint256",
          "name": "id",
          "type": "uint256"
        },
        {
          "internalType": "uint256",
          "name": "poolId",
          "type": "uint256"
        },
        {
          "internalType": "string",
          "name": "url",
          "type": "string"
        },
        {
          "internalType": "address payable",
          "name": "owner",
          "type": "address"
        }
      ],
      "stateMutability": "view",
      "type": "function"
    },
    {
      "inputs": [],
      "name": "poolCount",
      "outputs": [
        {
          "internalType": "uint256",
          "name": "",
          "type": "uint256"
        }
      ],
      "stateMutability": "view",
      "type": "function"
    },
    {
      "inputs": [
        {
          "internalType": "uint256",
          "name": "",
          "type": "uint256"
        }
      ],
      "name": "pools",
      "outputs": [
        {
          "internalType": "uint256",
          "name": "id",
          "type": "uint256"
        },
        {
          "internalType": "string",
          "name": "collectionName",
          "type": "string"
        },
        {
          "internalType": "string",
          "name": "creatorName",
          "type": "string"
        },
        {
          "internalType": "string",
          "name": "description",
          "type": "string"
        },
        {
          "internalType": "uint256",
          "name": "imageCount",
          "type": "uint256"
        },
        {
          "internalType": "uint256",
          "name": "poolPrize",
          "type": "uint256"
        },
        {
          "internalType": "address payable",
          "name": "owner",
          "type": "address"
        }
      ],
      "stateMutability": "view",
      "type": "function"
    },
    {
      "inputs": [],
      "name": "randomResult",
      "outputs": [
        {
          "internalType": "uint256",
          "name": "",
          "type": "uint256"
        }
      ],
      "stateMutability": "view",
      "type": "function"
    },
    {
      "inputs": [
        {
          "internalType": "uint256",
          "name": "redeemId",
          "type": "uint256"
        },
        {
          "internalType": "uint256",
          "name": "_poolId",
          "type": "uint256"
        }
      ],
      "name": "redeemToken",
      "outputs": [
        {
          "internalType": "bool",
          "name": "",
          "type": "bool"
        }
      ],
      "stateMutability": "nonpayable",
      "type": "function"
    },
    {
      "inputs": [
        {
          "internalType": "address",
          "name": "",
          "type": "address"
        },
        {
          "internalType": "uint256",
          "name": "",
          "type": "uint256"
        }
      ],
      "name": "userCardList",
      "outputs": [
        {
          "internalType": "uint256",
          "name": "poolId",
          "type": "uint256"
        },
        {
          "internalType": "uint256",
          "name": "imageCount",
          "type": "uint256"
        },
        {
          "internalType": "uint256",
          "name": "winCount",
          "type": "uint256"
        }
      ],
      "stateMutability": "view",
      "type": "function"
    },
    {
      "inputs": [],
      "name": "withdrawETH",
      "outputs": [],
      "stateMutability": "nonpayable",
      "type": "function"
    }
  ],
  "bytecode": "0x6080604052600080556000600255600060055564e8d4a50fff60065534801561002757600080fd5b506120cc806100376000396000f3fe60806040526004361061012a5760003560e01c8063a09ae617116100ab578063ca551b021161006f578063ca551b02146103f7578063d709815414610434578063e086e5ec1461045d578063e421b16714610474578063f525cb68146104b1578063f80b3933146104dc5761012a565b8063a09ae61714610307578063a797449614610323578063ac4afa381461034c578063aceb8e921461038f578063c2e216ed146103b85761012a565b80633272a2c0116100f25780633272a2c01461020957806342619f66146102465780638485648214610271578063884bf67c146102b157806392053b63146102dc5761012a565b8063137919c31461012f578063188549391461013957806328102e54146101765780632d222f22146101a157806330d5fa49146101cc575b600080fd5b610137610505565b005b34801561014557600080fd5b50610160600480360381019061015b919061199d565b610632565b60405161016d9190611ca4565b60405180910390f35b34801561018257600080fd5b5061018b610747565b6040516101989190611cff565b60405180910390f35b3480156101ad57600080fd5b506101b661074d565b6040516101c39190611cff565b60405180910390f35b3480156101d857600080fd5b506101f360048036038101906101ee919061199d565b610796565b6040516102009190611c52565b60405180910390f35b34801561021557600080fd5b50610230600480360381019061022b9190611a1a565b610847565b60405161023d9190611cff565b60405180910390f35b34801561025257600080fd5b5061025b610882565b6040516102689190611cff565b60405180910390f35b34801561027d57600080fd5b506102986004803603810190610293919061199d565b610888565b6040516102a89493929190611e27565b60405180910390f35b3480156102bd57600080fd5b506102c6610970565b6040516102d39190611cff565b60405180910390f35b3480156102e857600080fd5b506102f1610978565b6040516102fe9190611cff565b60405180910390f35b610321600480360381019061031c919061199d565b61097e565b005b34801561032f57600080fd5b5061034a600480360381019061034591906118c6565b6109e6565b005b34801561035857600080fd5b50610373600480360381019061036e919061199d565b610bc1565b6040516103869796959493929190611d43565b60405180910390f35b34801561039b57600080fd5b506103b660048036038101906103b1919061199d565b610deb565b005b3480156103c457600080fd5b506103df60048036038101906103da919061188a565b610f50565b6040516103ee93929190611e73565b60405180910390f35b34801561040357600080fd5b5061041e60048036038101906104199190611a1a565b610f87565b60405161042b9190611ca4565b60405180910390f35b34801561044057600080fd5b5061045b6004803603810190610456919061199d565b610ff8565b005b34801561046957600080fd5b50610472611222565b005b34801561048057600080fd5b5061049b6004803603810190610496919061199d565b61126b565b6040516104a89190611c52565b60405180910390f35b3480156104bd57600080fd5b506104c66112df565b6040516104d39190611cff565b60405180910390f35b3480156104e857600080fd5b5061050360048036038101906104fe91906119c6565b6112e5565b005b600061051260065461145c565b9050806006819055506060600567ffffffffffffffff8111801561053557600080fd5b506040519080825280602002602001820160405280156105645781602001602082028036833780820191505090505b50905060005b60058110156105f457600060016002546006548460405160200161058f929190611dc7565b6040516020818303038152906040528051906020012060001c816105af57fe5b060190506000600534816105bf57fe5b0490506105cc828261149c565b818484815181106105d957fe5b6020026020010181815250505050808060010191505061056a565b507f5c73fe7f0d2f4fe64e464570cf9b96a856b3816833404ff44db80790ac75fe4c8133604051610626929190611c74565b60405180910390a15050565b6000806001600084815260200190815260200160002090506000600460003373ffffffffffffffffffffffffffffffffffffffff1673ffffffffffffffffffffffffffffffffffffffff168152602001908152602001600020600085815260200190815260200160002090506000805b8360050154811015610739576000915060005b8360010154811015610711578360020181815481106106d057fe5b90600052602060002001548560040183815481106106ea57fe5b906000526020600020015414156107045760019250610711565b80806001019150506106b5565b5060001515821515141561072c576000945050505050610742565b80806001019150506106a2565b50600193505050505b919050565b60055481565b60008061076167016345785d89ffff61145c565b905060016007600083815260200190815260200160002060006101000a81548160ff0219169083151502179055508091505090565b60606000600460003373ffffffffffffffffffffffffffffffffffffffff1673ffffffffffffffffffffffffffffffffffffffff168152602001908152602001600020600084815260200190815260200160002090508060020180548060200260200160405190810160405280929190818152602001828054801561083a57602002820191906000526020600020905b815481526020019060010190808311610826575b5050505050915050919050565b60008060016000858152602001908152602001600020905080600401838154811061086e57fe5b906000526020600020015491505092915050565b60065481565b6003602052806000526040600020600091509050806000015490806001015490806002018054600181600116156101000203166002900480601f0160208091040260200160405190810160405280929190818152602001828054600181600116156101000203166002900480156109405780601f1061091557610100808354040283529160200191610940565b820191906000526020600020905b81548152906001019060200180831161092357829003601f168201915b5050505050908060030160009054906101000a900473ffffffffffffffffffffffffffffffffffffffff16905084565b600047905090565b60025481565b60006001600083815260200190815260200160002090503481600601600082825401925050819055507f0767372a71bee02dafa14dcddb6abca5a4a2ca7db44b4f0ccbb94968870541298234336040516109da93929190611df0565b60405180910390a15050565b60008081548092919060010191905055506040518061010001604052806000548152602001868152602001858152602001848152602001600067ffffffffffffffff81118015610a3557600080fd5b50604051908082528060200260200182016040528015610a645781602001602082028036833780820191505090505b50815260200160008152602001600081526020013373ffffffffffffffffffffffffffffffffffffffff168152506001600080548152602001908152602001600020600082015181600001556020820151816001019080519060200190610acc9291906116ae565b506040820151816002019080519060200190610ae99291906116ae565b506060820151816003019080519060200190610b069291906116ae565b506080820151816004019080519060200190610b2392919061172e565b5060a0820151816005015560c0820151816006015560e08201518160070160006101000a81548173ffffffffffffffffffffffffffffffffffffffff021916908373ffffffffffffffffffffffffffffffffffffffff16021790555090505060005b81811015610bb957610bac600054848381518110610b9f57fe5b60200260200101516112e5565b8080600101915050610b85565b505050505050565b6001602052806000526040600020600091509050806000015490806001018054600181600116156101000203166002900480601f016020809104026020016040519081016040528092919081815260200182805460018160011615610100020316600290048015610c735780601f10610c4857610100808354040283529160200191610c73565b820191906000526020600020905b815481529060010190602001808311610c5657829003601f168201915b505050505090806002018054600181600116156101000203166002900480601f016020809104026020016040519081016040528092919081815260200182805460018160011615610100020316600290048015610d115780601f10610ce657610100808354040283529160200191610d11565b820191906000526020600020905b815481529060010190602001808311610cf457829003601f168201915b505050505090806003018054600181600116156101000203166002900480601f016020809104026020016040519081016040528092919081815260200182805460018160011615610100020316600290048015610daf5780601f10610d8457610100808354040283529160200191610daf565b820191906000526020600020905b815481529060010190602001808311610d9257829003601f168201915b5050505050908060050154908060060154908060070160009054906101000a900473ffffffffffffffffffffffffffffffffffffffff16905087565b6040518060a0016040528082815260200160008152602001600067ffffffffffffffff81118015610e1b57600080fd5b50604051908082528060200260200182016040528015610e4a5781602001602082028036833780820191505090505b50815260200160008152602001600067ffffffffffffffff81118015610e6f57600080fd5b50604051908082528060200260200182016040528015610e9e5781602001602082028036833780820191505090505b50815250600460003373ffffffffffffffffffffffffffffffffffffffff1673ffffffffffffffffffffffffffffffffffffffff168152602001908152602001600020600083815260200190815260200160002060008201518160000155602082015181600101556040820151816002019080519060200190610f2292919061172e565b50606082015181600301556080820151816004019080519060200190610f4992919061172e565b5090505050565b6004602052816000526040600020602052806000526040600020600091509150508060000154908060010154908060030154905083565b60006007600084815260200190815260200160002060009054906101000a900460ff1615610fed5760006007600085815260200190815260200160002060006101000a81548160ff021916908315150217905550610fe482611582565b60019050610ff2565b600090505b92915050565b60006001600083815260200190815260200160002090506000600460003373ffffffffffffffffffffffffffffffffffffffff1673ffffffffffffffffffffffffffffffffffffffff1681526020019081526020016000206000848152602001908152602001600020905060005b81600301548110156110db578382600401828154811061108257fe5b906000526020600020015414156110ce576040517f08c379a00000000000000000000000000000000000000000000000000000000081526004016110c590611cbf565b60405180910390fd5b8080600101915050611066565b506110e583610632565b611124576040517f08c379a000000000000000000000000000000000000000000000000000000000815260040161111b90611cdf565b60405180910390fd5b60018160030160008282540192505081905550806004018390806001815401808255809150506001900390600052602060002001600090919091909150556000606460328460060154028161117557fe5b0490503373ffffffffffffffffffffffffffffffffffffffff166108fc829081150290604051600060405180830381858888f193505050501580156111be573d6000803e3d6000fd5b50808360060160008282540392505081905550806005600082825401925050819055507f356422e982ec6a4ce05173e7e9afd2a3ca3a2d5a81c14aea896fa7994798128084823360405161121493929190611df0565b60405180910390a150505050565b3373ffffffffffffffffffffffffffffffffffffffff166108fc479081150290604051600060405180830381858888f19350505050158015611268573d6000803e3d6000fd5b50565b60606000600160008481526020019081526020016000209050806004018054806020026020016040519081016040528092919081815260200182805480156112d257602002820191906000526020600020905b8154815260200190600101908083116112be575b5050505050915050919050565b60005481565b600260008154809291906001019190505550604051806080016040528060025481526020018381526020018281526020013373ffffffffffffffffffffffffffffffffffffffff16815250600360006002548152602001908152602001600020600082015181600001556020820151816001015560408201518160020190805190602001906113759291906116ae565b5060608201518160030160006101000a81548173ffffffffffffffffffffffffffffffffffffffff021916908373ffffffffffffffffffffffffffffffffffffffff160217905550905050600060016000848152602001908152602001600020905080600401600254908060018154018082558091505060019003906000526020600020016000909190919091505580600501600081548092919060010191905055507f0ac629a6bcf8d384cf1e51c36f6877eace9d8772af3a20919cdc7c1b5b3937fc60025484843360405161144f9493929190611e27565b60405180910390a1505050565b60008142443360405160200161147493929190611c15565b6040516020818303038152906040528051906020012060001c8161149457fe5b069050919050565b60006003600084815260200190815260200160002090506000600460003373ffffffffffffffffffffffffffffffffffffffff1673ffffffffffffffffffffffffffffffffffffffff1681526020019081526020016000206000836001015481526020019081526020016000209050806002018260000154908060018154018082558091505060019003906000526020600020016000909190919091505580600101600081548092919060010191905055506000600160008460010154815260200190815260200160002090508381600601600082825401925050819055505050505050565b600060016000838152602001908152602001600020905060006115a8826005015461145c565b90506000600460003373ffffffffffffffffffffffffffffffffffffffff1673ffffffffffffffffffffffffffffffffffffffff168152602001908152602001600020600085815260200190815260200160002090508060020183600401838154811061161157fe5b9060005260206000200154908060018154018082558091505060019003906000526020600020016000909190919091505580600101600081548092919060010191905055507f7250e9a000b75db9093566b96fc4ee3c86782ba060f4f3a7c1431fbcc9d8ead483600401838154811061168657fe5b9060005260206000200154336040516116a0929190611d1a565b60405180910390a150505050565b828054600181600116156101000203166002900490600052602060002090601f016020900481019282601f106116ef57805160ff191683800117855561171d565b8280016001018555821561171d579182015b8281111561171c578251825591602001919060010190611701565b5b50905061172a919061177b565b5090565b82805482825590600052602060002090810192821561176a579160200282015b8281111561176957825182559160200191906001019061174e565b5b509050611777919061177b565b5090565b5b8082111561179457600081600090555060010161177c565b5090565b6000813590506117a781612068565b92915050565b600082601f8301126117be57600080fd5b81356117d16117cc82611ed7565b611eaa565b9150818183526020840193506020810190508360005b8381101561181757813586016117fd8882611821565b8452602084019350602083019250506001810190506117e7565b5050505092915050565b600082601f83011261183257600080fd5b813561184561184082611eff565b611eaa565b9150808252602083016020830185838301111561186157600080fd5b61186c838284611fda565b50505092915050565b6000813590506118848161207f565b92915050565b6000806040838503121561189d57600080fd5b60006118ab85828601611798565b92505060206118bc85828601611875565b9150509250929050565b600080600080600060a086880312156118de57600080fd5b600086013567ffffffffffffffff8111156118f857600080fd5b61190488828901611821565b955050602086013567ffffffffffffffff81111561192157600080fd5b61192d88828901611821565b945050604086013567ffffffffffffffff81111561194a57600080fd5b61195688828901611821565b935050606086013567ffffffffffffffff81111561197357600080fd5b61197f888289016117ad565b925050608061199088828901611875565b9150509295509295909350565b6000602082840312156119af57600080fd5b60006119bd84828501611875565b91505092915050565b600080604083850312156119d957600080fd5b60006119e785828601611875565b925050602083013567ffffffffffffffff811115611a0457600080fd5b611a1085828601611821565b9150509250929050565b60008060408385031215611a2d57600080fd5b6000611a3b85828601611875565b9250506020611a4c85828601611875565b9150509250929050565b6000611a628383611be0565b60208301905092915050565b611a7781611f92565b82525050565b611a8e611a8982611f92565b61201c565b82525050565b6000611a9f82611f3b565b611aa98185611f5e565b9350611ab483611f2b565b8060005b83811015611ae5578151611acc8882611a56565b9750611ad783611f51565b925050600181019050611ab8565b5085935050505092915050565b611afb81611fa4565b82525050565b6000611b0c82611f46565b611b168185611f6f565b9350611b26818560208601611fe9565b611b2f8161204a565b840191505092915050565b6000611b47602383611f6f565b91507f596f7520616c726561647920776f6e20666f72207468697320636f6c6c65637460008301527f696f6e00000000000000000000000000000000000000000000000000000000006020830152604082019050919050565b6000611bad601f83611f6f565b91507f596f7520646964206e6f74206861766520616c6c2074686520706965636573006000830152602082019050919050565b611be981611fd0565b82525050565b611bf881611fd0565b82525050565b611c0f611c0a82611fd0565b612040565b82525050565b6000611c218286611bfe565b602082019150611c318285611bfe565b602082019150611c418284611a7d565b601482019150819050949350505050565b60006020820190508181036000830152611c6c8184611a94565b905092915050565b60006040820190508181036000830152611c8e8185611a94565b9050611c9d6020830184611a6e565b9392505050565b6000602082019050611cb96000830184611af2565b92915050565b60006020820190508181036000830152611cd881611b3a565b9050919050565b60006020820190508181036000830152611cf881611ba0565b9050919050565b6000602082019050611d146000830184611bef565b92915050565b6000604082019050611d2f6000830185611bef565b611d3c6020830184611a6e565b9392505050565b600060e082019050611d58600083018a611bef565b8181036020830152611d6a8189611b01565b90508181036040830152611d7e8188611b01565b90508181036060830152611d928187611b01565b9050611da16080830186611bef565b611dae60a0830185611bef565b611dbb60c0830184611a6e565b98975050505050505050565b6000604082019050611ddc6000830185611bef565b611de96020830184611bef565b9392505050565b6000606082019050611e056000830186611bef565b611e126020830185611bef565b611e1f6040830184611a6e565b949350505050565b6000608082019050611e3c6000830187611bef565b611e496020830186611bef565b8181036040830152611e5b8185611b01565b9050611e6a6060830184611a6e565b95945050505050565b6000606082019050611e886000830186611bef565b611e956020830185611bef565b611ea26040830184611bef565b949350505050565b6000604051905081810181811067ffffffffffffffff82111715611ecd57600080fd5b8060405250919050565b600067ffffffffffffffff821115611eee57600080fd5b602082029050602081019050919050565b600067ffffffffffffffff821115611f1657600080fd5b601f19601f8301169050602081019050919050565b6000819050602082019050919050565b600081519050919050565b600081519050919050565b6000602082019050919050565b600082825260208201905092915050565b600082825260208201905092915050565b6000611f8b82611fb0565b9050919050565b6000611f9d82611fb0565b9050919050565b60008115159050919050565b600073ffffffffffffffffffffffffffffffffffffffff82169050919050565b6000819050919050565b82818337600083830152505050565b60005b83811015612007578082015181840152602081019050611fec565b83811115612016576000848401525b50505050565b60006120278261202e565b9050919050565b60006120398261205b565b9050919050565b6000819050919050565b6000601f19601f8301169050919050565b60008160601b9050919050565b61207181611f80565b811461207c57600080fd5b50565b61208881611fd0565b811461209357600080fd5b5056fea2646970667358221220171f2d920330300d5f01b9707e3dba159e27201f1a81e52660d8867a1aa99a7264736f6c634300060c0033",
  "linkReferences": {},
  "deployedLinkReferences": {}
}