{
  "_format": "hh-sol-artifact-1",
  "contractName": "CollectNFTV2",
  "sourceName": "contracts/CollectNFTV2.sol",
  "abi": [
    {
      "inputs": [],
      "stateMutability": "nonpayable",
      "type": "constructor"
    },
    {
      "anonymous": false,
      "inputs": [
        {
          "indexed": true,
          "internalType": "address",
          "name": "owner",
          "type": "address"
        },
        {
          "indexed": true,
          "internalType": "address",
          "name": "approved",
          "type": "address"
        },
        {
          "indexed": true,
          "internalType": "uint256",
          "name": "tokenId",
          "type": "uint256"
        }
      ],
      "name": "Approval",
      "type": "event"
    },
    {
      "anonymous": false,
      "inputs": [
        {
          "indexed": true,
          "internalType": "address",
          "name": "owner",
          "type": "address"
        },
        {
          "indexed": true,
          "internalType": "address",
          "name": "operator",
          "type": "address"
        },
        {
          "indexed": false,
          "internalType": "bool",
          "name": "approved",
          "type": "bool"
        }
      ],
      "name": "ApprovalForAll",
      "type": "event"
    },
    {
      "anonymous": false,
      "inputs": [
        {
          "indexed": false,
          "internalType": "uint256",
          "name": "poolId",
          "type": "uint256"
        },
        {
          "indexed": false,
          "internalType": "uint256",
          "name": "amount",
          "type": "uint256"
        },
        {
          "indexed": false,
          "internalType": "address payable",
          "name": "from",
          "type": "address"
        }
      ],
      "name": "CollectionFunded",
      "type": "event"
    },
    {
      "anonymous": false,
      "inputs": [
        {
          "indexed": false,
          "internalType": "uint256",
          "name": "imageId",
          "type": "uint256"
        },
        {
          "indexed": false,
          "internalType": "uint256",
          "name": "poolId",
          "type": "uint256"
        },
        {
          "indexed": false,
          "internalType": "string",
          "name": "url",
          "type": "string"
        },
        {
          "indexed": false,
          "internalType": "address payable",
          "name": "owner",
          "type": "address"
        }
      ],
      "name": "ImageCreated",
      "type": "event"
    },
    {
      "anonymous": false,
      "inputs": [
        {
          "indexed": false,
          "internalType": "uint256[]",
          "name": "imageIdList",
          "type": "uint256[]"
        },
        {
          "indexed": false,
          "internalType": "address payable",
          "name": "owner",
          "type": "address"
        }
      ],
      "name": "LootBoxResult",
      "type": "event"
    },
    {
      "anonymous": false,
      "inputs": [
        {
          "indexed": false,
          "internalType": "uint256",
          "name": "tokenId",
          "type": "uint256"
        },
        {
          "indexed": false,
          "internalType": "string",
          "name": "url",
          "type": "string"
        },
        {
          "indexed": false,
          "internalType": "address payable",
          "name": "from",
          "type": "address"
        }
      ],
      "name": "NFTMinted",
      "type": "event"
    },
    {
      "anonymous": false,
      "inputs": [
        {
          "indexed": false,
          "internalType": "uint256",
          "name": "imageId",
          "type": "uint256"
        },
        {
          "indexed": false,
          "internalType": "address payable",
          "name": "owner",
          "type": "address"
        }
      ],
      "name": "PieceWon",
      "type": "event"
    },
    {
      "anonymous": false,
      "inputs": [
        {
          "indexed": false,
          "internalType": "uint256",
          "name": "poolId",
          "type": "uint256"
        },
        {
          "indexed": false,
          "internalType": "uint256",
          "name": "amount",
          "type": "uint256"
        },
        {
          "indexed": false,
          "internalType": "address payable",
          "name": "winner",
          "type": "address"
        }
      ],
      "name": "PrizeWon",
      "type": "event"
    },
    {
      "anonymous": false,
      "inputs": [
        {
          "indexed": true,
          "internalType": "address",
          "name": "from",
          "type": "address"
        },
        {
          "indexed": true,
          "internalType": "address",
          "name": "to",
          "type": "address"
        },
        {
          "indexed": true,
          "internalType": "uint256",
          "name": "tokenId",
          "type": "uint256"
        }
      ],
      "name": "Transfer",
      "type": "event"
    },
    {
      "inputs": [
        {
          "internalType": "uint256",
          "name": "_poolId",
          "type": "uint256"
        },
        {
          "internalType": "string",
          "name": "_url",
          "type": "string"
        }
      ],
      "name": "addImageToPool",
      "outputs": [],
      "stateMutability": "nonpayable",
      "type": "function"
    },
    {
      "inputs": [],
      "name": "amountWon",
      "outputs": [
        {
          "internalType": "uint256",
          "name": "",
          "type": "uint256"
        }
      ],
      "stateMutability": "view",
      "type": "function"
    },
    {
      "inputs": [
        {
          "internalType": "address",
          "name": "to",
          "type": "address"
        },
        {
          "internalType": "uint256",
          "name": "tokenId",
          "type": "uint256"
        }
      ],
      "name": "approve",
      "outputs": [],
      "stateMutability": "nonpayable",
      "type": "function"
    },
    {
      "inputs": [
        {
          "internalType": "address",
          "name": "owner",
          "type": "address"
        }
      ],
      "name": "balanceOf",
      "outputs": [
        {
          "internalType": "uint256",
          "name": "",
          "type": "uint256"
        }
      ],
      "stateMutability": "view",
      "type": "function"
    },
    {
      "inputs": [],
      "name": "baseURI",
      "outputs": [
        {
          "internalType": "string",
          "name": "",
          "type": "string"
        }
      ],
      "stateMutability": "view",
      "type": "function"
    },
    {
      "inputs": [],
      "name": "buyLootBox",
      "outputs": [],
      "stateMutability": "payable",
      "type": "function"
    },
    {
      "inputs": [
        {
          "internalType": "uint256",
          "name": "_poolId",
          "type": "uint256"
        }
      ],
      "name": "checkWinner",
      "outputs": [
        {
          "internalType": "bool",
          "name": "",
          "type": "bool"
        }
      ],
      "stateMutability": "view",
      "type": "function"
    },
    {
      "inputs": [
        {
          "internalType": "uint256",
          "name": "_poolId",
          "type": "uint256"
        }
      ],
      "name": "claimPrize",
      "outputs": [],
      "stateMutability": "nonpayable",
      "type": "function"
    },
    {
      "inputs": [],
      "name": "createCode",
      "outputs": [
        {
          "internalType": "uint256",
          "name": "",
          "type": "uint256"
        }
      ],
      "stateMutability": "nonpayable",
      "type": "function"
    },
    {
      "inputs": [
        {
          "internalType": "string",
          "name": "_collectionName",
          "type": "string"
        },
        {
          "internalType": "string",
          "name": "_creatorName",
          "type": "string"
        },
        {
          "internalType": "string",
          "name": "_description",
          "type": "string"
        },
        {
          "internalType": "string[]",
          "name": "_urls",
          "type": "string[]"
        },
        {
          "internalType": "uint256",
          "name": "_arrLength",
          "type": "uint256"
        }
      ],
      "name": "createPool",
      "outputs": [],
      "stateMutability": "nonpayable",
      "type": "function"
    },
    {
      "inputs": [
        {
          "internalType": "uint256",
          "name": "_poolId",
          "type": "uint256"
        }
      ],
      "name": "createUserCard",
      "outputs": [],
      "stateMutability": "nonpayable",
      "type": "function"
    },
    {
      "inputs": [
        {
          "internalType": "uint256",
          "name": "_poolId",
          "type": "uint256"
        }
      ],
      "name": "fundACollection",
      "outputs": [],
      "stateMutability": "payable",
      "type": "function"
    },
    {
      "inputs": [
        {
          "internalType": "uint256",
          "name": "tokenId",
          "type": "uint256"
        }
      ],
      "name": "getApproved",
      "outputs": [
        {
          "internalType": "address",
          "name": "",
          "type": "address"
        }
      ],
      "stateMutability": "view",
      "type": "function"
    },
    {
      "inputs": [
        {
          "internalType": "uint256",
          "name": "_poolId",
          "type": "uint256"
        },
        {
          "internalType": "uint256",
          "name": "_imageId",
          "type": "uint256"
        }
      ],
      "name": "getPoolImageId",
      "outputs": [
        {
          "internalType": "uint256",
          "name": "",
          "type": "uint256"
        }
      ],
      "stateMutability": "view",
      "type": "function"
    },
    {
      "inputs": [
        {
          "internalType": "uint256",
          "name": "_poolId",
          "type": "uint256"
        }
      ],
      "name": "getPoolImages",
      "outputs": [
        {
          "internalType": "uint256[]",
          "name": "",
          "type": "uint256[]"
        }
      ],
      "stateMutability": "view",
      "type": "function"
    },
    {
      "inputs": [],
      "name": "getPrizePool",
      "outputs": [
        {
          "internalType": "uint256",
          "name": "",
          "type": "uint256"
        }
      ],
      "stateMutability": "view",
      "type": "function"
    },
    {
      "inputs": [
        {
          "internalType": "uint256",
          "name": "_poolId",
          "type": "uint256"
        }
      ],
      "name": "getUserImages",
      "outputs": [
        {
          "internalType": "uint256[]",
          "name": "",
          "type": "uint256[]"
        }
      ],
      "stateMutability": "view",
      "type": "function"
    },
    {
      "inputs": [],
      "name": "imageCount",
      "outputs": [
        {
          "internalType": "uint256",
          "name": "",
          "type": "uint256"
        }
      ],
      "stateMutability": "view",
      "type": "function"
    },
    {
      "inputs": [
        {
          "internalType": "uint256",
          "name": "",
          "type": "uint256"
        }
      ],
      "name": "images",
      "outputs": [
        {
          "internalType": "uint256",
          "name": "id",
          "type": "uint256"
        },
        {
          "internalType": "uint256",
          "name": "poolId",
          "type": "uint256"
        },
        {
          "internalType": "string",
          "name": "url",
          "type": "string"
        },
        {
          "internalType": "address payable",
          "name": "owner",
          "type": "address"
        }
      ],
      "stateMutability": "view",
      "type": "function"
    },
    {
      "inputs": [
        {
          "internalType": "address",
          "name": "owner",
          "type": "address"
        },
        {
          "internalType": "address",
          "name": "operator",
          "type": "address"
        }
      ],
      "name": "isApprovedForAll",
      "outputs": [
        {
          "internalType": "bool",
          "name": "",
          "type": "bool"
        }
      ],
      "stateMutability": "view",
      "type": "function"
    },
    {
      "inputs": [
        {
          "internalType": "string",
          "name": "_url",
          "type": "string"
        }
      ],
      "name": "mintCollectionNFT",
      "outputs": [],
      "stateMutability": "nonpayable",
      "type": "function"
    },
    {
      "inputs": [],
      "name": "name",
      "outputs": [
        {
          "internalType": "string",
          "name": "",
          "type": "string"
        }
      ],
      "stateMutability": "view",
      "type": "function"
    },
    {
      "inputs": [
        {
          "internalType": "uint256",
          "name": "tokenId",
          "type": "uint256"
        }
      ],
      "name": "ownerOf",
      "outputs": [
        {
          "internalType": "address",
          "name": "",
          "type": "address"
        }
      ],
      "stateMutability": "view",
      "type": "function"
    },
    {
      "inputs": [],
      "name": "poolCount",
      "outputs": [
        {
          "internalType": "uint256",
          "name": "",
          "type": "uint256"
        }
      ],
      "stateMutability": "view",
      "type": "function"
    },
    {
      "inputs": [
        {
          "internalType": "uint256",
          "name": "",
          "type": "uint256"
        }
      ],
      "name": "pools",
      "outputs": [
        {
          "internalType": "uint256",
          "name": "id",
          "type": "uint256"
        },
        {
          "internalType": "string",
          "name": "collectionName",
          "type": "string"
        },
        {
          "internalType": "string",
          "name": "creatorName",
          "type": "string"
        },
        {
          "internalType": "string",
          "name": "description",
          "type": "string"
        },
        {
          "internalType": "uint256",
          "name": "imageCount",
          "type": "uint256"
        },
        {
          "internalType": "uint256",
          "name": "poolPrize",
          "type": "uint256"
        },
        {
          "internalType": "address payable",
          "name": "owner",
          "type": "address"
        }
      ],
      "stateMutability": "view",
      "type": "function"
    },
    {
      "inputs": [],
      "name": "randomResult",
      "outputs": [
        {
          "internalType": "uint256",
          "name": "",
          "type": "uint256"
        }
      ],
      "stateMutability": "view",
      "type": "function"
    },
    {
      "inputs": [
        {
          "internalType": "uint256",
          "name": "redeemId",
          "type": "uint256"
        },
        {
          "internalType": "uint256",
          "name": "_poolId",
          "type": "uint256"
        }
      ],
      "name": "redeemToken",
      "outputs": [
        {
          "internalType": "bool",
          "name": "",
          "type": "bool"
        }
      ],
      "stateMutability": "nonpayable",
      "type": "function"
    },
    {
      "inputs": [
        {
          "internalType": "address",
          "name": "from",
          "type": "address"
        },
        {
          "internalType": "address",
          "name": "to",
          "type": "address"
        },
        {
          "internalType": "uint256",
          "name": "tokenId",
          "type": "uint256"
        }
      ],
      "name": "safeTransferFrom",
      "outputs": [],
      "stateMutability": "nonpayable",
      "type": "function"
    },
    {
      "inputs": [
        {
          "internalType": "address",
          "name": "from",
          "type": "address"
        },
        {
          "internalType": "address",
          "name": "to",
          "type": "address"
        },
        {
          "internalType": "uint256",
          "name": "tokenId",
          "type": "uint256"
        },
        {
          "internalType": "bytes",
          "name": "_data",
          "type": "bytes"
        }
      ],
      "name": "safeTransferFrom",
      "outputs": [],
      "stateMutability": "nonpayable",
      "type": "function"
    },
    {
      "inputs": [
        {
          "internalType": "address",
          "name": "operator",
          "type": "address"
        },
        {
          "internalType": "bool",
          "name": "approved",
          "type": "bool"
        }
      ],
      "name": "setApprovalForAll",
      "outputs": [],
      "stateMutability": "nonpayable",
      "type": "function"
    },
    {
      "inputs": [
        {
          "internalType": "bytes4",
          "name": "interfaceId",
          "type": "bytes4"
        }
      ],
      "name": "supportsInterface",
      "outputs": [
        {
          "internalType": "bool",
          "name": "",
          "type": "bool"
        }
      ],
      "stateMutability": "view",
      "type": "function"
    },
    {
      "inputs": [],
      "name": "symbol",
      "outputs": [
        {
          "internalType": "string",
          "name": "",
          "type": "string"
        }
      ],
      "stateMutability": "view",
      "type": "function"
    },
    {
      "inputs": [
        {
          "internalType": "uint256",
          "name": "index",
          "type": "uint256"
        }
      ],
      "name": "tokenByIndex",
      "outputs": [
        {
          "internalType": "uint256",
          "name": "",
          "type": "uint256"
        }
      ],
      "stateMutability": "view",
      "type": "function"
    },
    {
      "inputs": [
        {
          "internalType": "address",
          "name": "owner",
          "type": "address"
        },
        {
          "internalType": "uint256",
          "name": "index",
          "type": "uint256"
        }
      ],
      "name": "tokenOfOwnerByIndex",
      "outputs": [
        {
          "internalType": "uint256",
          "name": "",
          "type": "uint256"
        }
      ],
      "stateMutability": "view",
      "type": "function"
    },
    {
      "inputs": [
        {
          "internalType": "uint256",
          "name": "tokenId",
          "type": "uint256"
        }
      ],
      "name": "tokenURI",
      "outputs": [
        {
          "internalType": "string",
          "name": "",
          "type": "string"
        }
      ],
      "stateMutability": "view",
      "type": "function"
    },
    {
      "inputs": [],
      "name": "totalSupply",
      "outputs": [
        {
          "internalType": "uint256",
          "name": "",
          "type": "uint256"
        }
      ],
      "stateMutability": "view",
      "type": "function"
    },
    {
      "inputs": [
        {
          "internalType": "address",
          "name": "from",
          "type": "address"
        },
        {
          "internalType": "address",
          "name": "to",
          "type": "address"
        },
        {
          "internalType": "uint256",
          "name": "tokenId",
          "type": "uint256"
        }
      ],
      "name": "transferFrom",
      "outputs": [],
      "stateMutability": "nonpayable",
      "type": "function"
    },
    {
      "inputs": [
        {
          "internalType": "address",
          "name": "",
          "type": "address"
        },
        {
          "internalType": "uint256",
          "name": "",
          "type": "uint256"
        }
      ],
      "name": "userCardList",
      "outputs": [
        {
          "internalType": "uint256",
          "name": "poolId",
          "type": "uint256"
        },
        {
          "internalType": "uint256",
          "name": "imageCount",
          "type": "uint256"
        },
        {
          "internalType": "uint256",
          "name": "winCount",
          "type": "uint256"
        }
      ],
      "stateMutability": "view",
      "type": "function"
    },
    {
      "inputs": [],
      "name": "withdrawETH",
      "outputs": [],
      "stateMutability": "nonpayable",
      "type": "function"
    }
  ],
  "bytecode": "0x60806040526000600a556000600c556000600f5564e8d4a50fff6010553480156200002957600080fd5b506040518060400160405280600981526020017f4e46542042696e676f00000000000000000000000000000000000000000000008152506040518060400160405280600481526020017f4e46544200000000000000000000000000000000000000000000000000000000815250620000ae6301ffc9a760e01b6200013060201b60201c565b8160069080519060200190620000c692919062000208565b508060079080519060200190620000df92919062000208565b50620000f86380ac58cd60e01b6200013060201b60201c565b62000110635b5e139f60e01b6200013060201b60201c565b6200012863780e9d6360e01b6200013060201b60201c565b505062000323565b63ffffffff60e01b817bffffffffffffffffffffffffffffffffffffffffffffffffffffffff191614156200019c576040517f08c379a00000000000000000000000000000000000000000000000000000000081526004016200019390620002f0565b60405180910390fd5b6001600080837bffffffffffffffffffffffffffffffffffffffffffffffffffffffff19167bffffffffffffffffffffffffffffffffffffffffffffffffffffffff1916815260200190815260200160002060006101000a81548160ff02191690831515021790555050565b828054600181600116156101000203166002900490600052602060002090601f016020900481019282601f106200024b57805160ff19168380011785556200027c565b828001600101855582156200027c579182015b828111156200027b5782518255916020019190600101906200025e565b5b5090506200028b91906200028f565b5090565b5b80821115620002aa57600081600090555060010162000290565b5090565b6000620002bd601c8362000312565b91507f4552433136353a20696e76616c696420696e74657266616365206964000000006000830152602082019050919050565b600060208201905081810360008301526200030b81620002ae565b9050919050565b600082825260208201905092915050565b614ec280620003336000396000f3fe6080604052600436106102305760003560e01c8063848564821161012e578063b88d4fde116100ab578063e086e5ec1161006f578063e086e5ec146108b0578063e421b167146108c7578063e985e9c514610904578063f525cb6814610941578063f80b39331461096c57610230565b8063b88d4fde146107a5578063c2e216ed146107ce578063c87b56dd1461080d578063ca551b021461084a578063d70981541461088757610230565b8063a22cb465116100f2578063a22cb465146106be578063a7974496146106e7578063ac4afa3814610710578063aceb8e9214610753578063ad4441771461077c57610230565b806384856482146105e1578063884bf67c1461062157806392053b631461064c57806395d89b4114610677578063a09ae617146106a257610230565b80632d222f22116101bc57806342842e0e1161018057806342842e0e146104d65780634f6ccce7146104ff5780636352211e1461053c5780636c0360eb1461057957806370a08231146105a457610230565b80632d222f22146103c95780632f745c59146103f457806330d5fa49146104315780633272a2c01461046e57806342619f66146104ab57610230565b8063137919c311610203578063137919c31461030357806318160ddd1461030d578063188549391461033857806323b872dd1461037557806328102e541461039e57610230565b806301ffc9a71461023557806306fdde0314610272578063081812fc1461029d578063095ea7b3146102da575b600080fd5b34801561024157600080fd5b5061025c60048036038101906102579190613a36565b610995565b60405161026991906146c7565b60405180910390f35b34801561027e57600080fd5b506102876109fc565b60405161029491906146e2565b60405180910390f35b3480156102a957600080fd5b506102c460048036038101906102bf9190613ba0565b610a9e565b6040516102d1919061460e565b60405180910390f35b3480156102e657600080fd5b5061030160048036038101906102fc91906139fa565b610b23565b005b61030b610c3b565b005b34801561031957600080fd5b50610322610d68565b60405161032f91906149a4565b60405180910390f35b34801561034457600080fd5b5061035f600480360381019061035a9190613ba0565b610d79565b60405161036c91906146c7565b60405180910390f35b34801561038157600080fd5b5061039c600480360381019061039791906138f4565b610e8e565b005b3480156103aa57600080fd5b506103b3610eee565b6040516103c091906149a4565b60405180910390f35b3480156103d557600080fd5b506103de610ef4565b6040516103eb91906149a4565b60405180910390f35b34801561040057600080fd5b5061041b600480360381019061041691906139fa565b610f3d565b60405161042891906149a4565b60405180910390f35b34801561043d57600080fd5b5061045860048036038101906104539190613ba0565b610f98565b6040516104659190614675565b60405180910390f35b34801561047a57600080fd5b5061049560048036038101906104909190613c1d565b611049565b6040516104a291906149a4565b60405180910390f35b3480156104b757600080fd5b506104c0611084565b6040516104cd91906149a4565b60405180910390f35b3480156104e257600080fd5b506104fd60048036038101906104f891906138f4565b61108a565b005b34801561050b57600080fd5b5061052660048036038101906105219190613ba0565b6110aa565b60405161053391906149a4565b60405180910390f35b34801561054857600080fd5b50610563600480360381019061055e9190613ba0565b6110cd565b604051610570919061460e565b60405180910390f35b34801561058557600080fd5b5061058e611104565b60405161059b91906146e2565b60405180910390f35b3480156105b057600080fd5b506105cb60048036038101906105c6919061388f565b6111a6565b6040516105d891906149a4565b60405180910390f35b3480156105ed57600080fd5b5061060860048036038101906106039190613ba0565b611265565b6040516106189493929190614b0a565b60405180910390f35b34801561062d57600080fd5b5061063661134d565b60405161064391906149a4565b60405180910390f35b34801561065857600080fd5b50610661611355565b60405161066e91906149a4565b60405180910390f35b34801561068357600080fd5b5061068c61135b565b60405161069991906146e2565b60405180910390f35b6106bc60048036038101906106b79190613ba0565b6113fd565b005b3480156106ca57600080fd5b506106e560048036038101906106e091906139be565b611465565b005b3480156106f357600080fd5b5061070e60048036038101906107099190613ac9565b6115e6565b005b34801561071c57600080fd5b5061073760048036038101906107329190613ba0565b6117c3565b60405161074a9796959493929190614a26565b60405180910390f35b34801561075f57600080fd5b5061077a60048036038101906107759190613ba0565b6119ed565b005b34801561078857600080fd5b506107a3600480360381019061079e9190613a88565b611b52565b005b3480156107b157600080fd5b506107cc60048036038101906107c79190613943565b611bc4565b005b3480156107da57600080fd5b506107f560048036038101906107f091906139fa565b611c26565b60405161080493929190614b56565b60405180910390f35b34801561081957600080fd5b50610834600480360381019061082f9190613ba0565b611c5d565b60405161084191906146e2565b60405180910390f35b34801561085657600080fd5b50610871600480360381019061086c9190613c1d565b611de0565b60405161087e91906146c7565b60405180910390f35b34801561089357600080fd5b506108ae60048036038101906108a99190613ba0565b611e51565b005b3480156108bc57600080fd5b506108c561207b565b005b3480156108d357600080fd5b506108ee60048036038101906108e99190613ba0565b6120c4565b6040516108fb9190614675565b60405180910390f35b34801561091057600080fd5b5061092b600480360381019061092691906138b8565b612138565b60405161093891906146c7565b60405180910390f35b34801561094d57600080fd5b506109566121cc565b60405161096391906149a4565b60405180910390f35b34801561097857600080fd5b50610993600480360381019061098e9190613bc9565b6121d2565b005b6000806000837bffffffffffffffffffffffffffffffffffffffffffffffffffffffff19167bffffffffffffffffffffffffffffffffffffffffffffffffffffffff1916815260200190815260200160002060009054906101000a900460ff169050919050565b606060068054600181600116156101000203166002900480601f016020809104026020016040519081016040528092919081815260200182805460018160011615610100020316600290048015610a945780601f10610a6957610100808354040283529160200191610a94565b820191906000526020600020905b815481529060010190602001808311610a7757829003601f168201915b5050505050905090565b6000610aa982612349565b610ae8576040517f08c379a0000000000000000000000000000000000000000000000000000000008152600401610adf906148a4565b60405180910390fd5b6004600083815260200190815260200160002060009054906101000a900473ffffffffffffffffffffffffffffffffffffffff169050919050565b6000610b2e826110cd565b90508073ffffffffffffffffffffffffffffffffffffffff168373ffffffffffffffffffffffffffffffffffffffff161415610b9f576040517f08c379a0000000000000000000000000000000000000000000000000000000008152600401610b9690614924565b60405180910390fd5b8073ffffffffffffffffffffffffffffffffffffffff16610bbe612366565b73ffffffffffffffffffffffffffffffffffffffff161480610bed5750610bec81610be7612366565b612138565b5b610c2c576040517f08c379a0000000000000000000000000000000000000000000000000000000008152600401610c2390614824565b60405180910390fd5b610c36838361236e565b505050565b6000610c48601054612427565b9050806010819055506060600567ffffffffffffffff81118015610c6b57600080fd5b50604051908082528060200260200182016040528015610c9a5781602001602082028036833780820191505090505b50905060005b6005811015610d2a5760006001600c5460105484604051602001610cc5929190614aaa565b6040516020818303038152906040528051906020012060001c81610ce557fe5b06019050600060053481610cf557fe5b049050610d028282612467565b81848481518110610d0f57fe5b60200260200101818152505050508080600101915050610ca0565b507f5c73fe7f0d2f4fe64e464570cf9b96a856b3816833404ff44db80790ac75fe4c8133604051610d5c929190614697565b60405180910390a15050565b6000610d74600261254d565b905090565b600080600b600084815260200190815260200160002090506000600e60003373ffffffffffffffffffffffffffffffffffffffff1673ffffffffffffffffffffffffffffffffffffffff168152602001908152602001600020600085815260200190815260200160002090506000805b8360050154811015610e80576000915060005b8360010154811015610e5857836002018181548110610e1757fe5b9060005260206000200154856004018381548110610e3157fe5b90600052602060002001541415610e4b5760019250610e58565b8080600101915050610dfc565b50600015158215151415610e73576000945050505050610e89565b8080600101915050610de9565b50600193505050505b919050565b610e9f610e99612366565b82612562565b610ede576040517f08c379a0000000000000000000000000000000000000000000000000000000008152600401610ed590614944565b60405180910390fd5b610ee9838383612640565b505050565b600f5481565b600080610f0867016345785d89ffff612427565b905060016011600083815260200190815260200160002060006101000a81548160ff0219169083151502179055508091505090565b6000610f9082600160008673ffffffffffffffffffffffffffffffffffffffff1673ffffffffffffffffffffffffffffffffffffffff16815260200190815260200160002061285790919063ffffffff16565b905092915050565b60606000600e60003373ffffffffffffffffffffffffffffffffffffffff1673ffffffffffffffffffffffffffffffffffffffff168152602001908152602001600020600084815260200190815260200160002090508060020180548060200260200160405190810160405280929190818152602001828054801561103c57602002820191906000526020600020905b815481526020019060010190808311611028575b5050505050915050919050565b600080600b6000858152602001908152602001600020905080600401838154811061107057fe5b906000526020600020015491505092915050565b60105481565b6110a583838360405180602001604052806000815250611bc4565b505050565b6000806110c183600261287190919063ffffffff16565b50905080915050919050565b60006110fd82604051806060016040528060298152602001614e6460299139600261289d9092919063ffffffff16565b9050919050565b606060098054600181600116156101000203166002900480601f01602080910402602001604051908101604052809291908181526020018280546001816001161561010002031660029004801561119c5780601f106111715761010080835404028352916020019161119c565b820191906000526020600020905b81548152906001019060200180831161117f57829003601f168201915b5050505050905090565b60008073ffffffffffffffffffffffffffffffffffffffff168273ffffffffffffffffffffffffffffffffffffffff161415611217576040517f08c379a000000000000000000000000000000000000000000000000000000000815260040161120e90614844565b60405180910390fd5b61125e600160008473ffffffffffffffffffffffffffffffffffffffff1673ffffffffffffffffffffffffffffffffffffffff1681526020019081526020016000206128bc565b9050919050565b600d602052806000526040600020600091509050806000015490806001015490806002018054600181600116156101000203166002900480601f01602080910402602001604051908101604052809291908181526020018280546001816001161561010002031660029004801561131d5780601f106112f25761010080835404028352916020019161131d565b820191906000526020600020905b81548152906001019060200180831161130057829003601f168201915b5050505050908060030160009054906101000a900473ffffffffffffffffffffffffffffffffffffffff16905084565b600047905090565b600c5481565b606060078054600181600116156101000203166002900480601f0160208091040260200160405190810160405280929190818152602001828054600181600116156101000203166002900480156113f35780601f106113c8576101008083540402835291602001916113f3565b820191906000526020600020905b8154815290600101906020018083116113d657829003601f168201915b5050505050905090565b6000600b600083815260200190815260200160002090503481600601600082825401925050819055507f0767372a71bee02dafa14dcddb6abca5a4a2ca7db44b4f0ccbb949688705412982343360405161145993929190614ad3565b60405180910390a15050565b61146d612366565b73ffffffffffffffffffffffffffffffffffffffff168273ffffffffffffffffffffffffffffffffffffffff1614156114db576040517f08c379a00000000000000000000000000000000000000000000000000000000081526004016114d2906147c4565b60405180910390fd5b80600560006114e8612366565b73ffffffffffffffffffffffffffffffffffffffff1673ffffffffffffffffffffffffffffffffffffffff16815260200190815260200160002060008473ffffffffffffffffffffffffffffffffffffffff1673ffffffffffffffffffffffffffffffffffffffff16815260200190815260200160002060006101000a81548160ff0219169083151502179055508173ffffffffffffffffffffffffffffffffffffffff16611595612366565b73ffffffffffffffffffffffffffffffffffffffff167f17307eab39ab6107e8899845ad3d59bd9653f200f220920489ca2b5937696c31836040516115da91906146c7565b60405180910390a35050565b600a60008154809291906001019190505550604051806101000160405280600a548152602001868152602001858152602001848152602001600067ffffffffffffffff8111801561163657600080fd5b506040519080825280602002602001820160405280156116655781602001602082028036833780820191505090505b50815260200160008152602001600081526020013373ffffffffffffffffffffffffffffffffffffffff16815250600b6000600a5481526020019081526020016000206000820151816000015560208201518160010190805190602001906116ce929190613620565b5060408201518160020190805190602001906116eb929190613620565b506060820151816003019080519060200190611708929190613620565b5060808201518160040190805190602001906117259291906136a0565b5060a0820151816005015560c0820151816006015560e08201518160070160006101000a81548173ffffffffffffffffffffffffffffffffffffffff021916908373ffffffffffffffffffffffffffffffffffffffff16021790555090505060005b818110156117bb576117ae600a548483815181106117a157fe5b60200260200101516121d2565b8080600101915050611787565b505050505050565b600b602052806000526040600020600091509050806000015490806001018054600181600116156101000203166002900480601f0160208091040260200160405190810160405280929190818152602001828054600181600116156101000203166002900480156118755780601f1061184a57610100808354040283529160200191611875565b820191906000526020600020905b81548152906001019060200180831161185857829003601f168201915b505050505090806002018054600181600116156101000203166002900480601f0160208091040260200160405190810160405280929190818152602001828054600181600116156101000203166002900480156119135780601f106118e857610100808354040283529160200191611913565b820191906000526020600020905b8154815290600101906020018083116118f657829003601f168201915b505050505090806003018054600181600116156101000203166002900480601f0160208091040260200160405190810160405280929190818152602001828054600181600116156101000203166002900480156119b15780601f10611986576101008083540402835291602001916119b1565b820191906000526020600020905b81548152906001019060200180831161199457829003601f168201915b5050505050908060050154908060060154908060070160009054906101000a900473ffffffffffffffffffffffffffffffffffffffff16905087565b6040518060a0016040528082815260200160008152602001600067ffffffffffffffff81118015611a1d57600080fd5b50604051908082528060200260200182016040528015611a4c5781602001602082028036833780820191505090505b50815260200160008152602001600067ffffffffffffffff81118015611a7157600080fd5b50604051908082528060200260200182016040528015611aa05781602001602082028036833780820191505090505b50815250600e60003373ffffffffffffffffffffffffffffffffffffffff1673ffffffffffffffffffffffffffffffffffffffff168152602001908152602001600020600083815260200190815260200160002060008201518160000155602082015181600101556040820151816002019080519060200190611b249291906136a0565b50606082015181600301556080820151816004019080519060200190611b4b9291906136a0565b5090505050565b6000611b6f6001611b61610d68565b6128d190919063ffffffff16565b9050611b7b3382612926565b611b858183612944565b7f411b345259a1495602cee098e5f501eb3412e0701c10b173ecd8ba7b585974a9818333604051611bb8939291906149e8565b60405180910390a15050565b611bd5611bcf612366565b83612562565b611c14576040517f08c379a0000000000000000000000000000000000000000000000000000000008152600401611c0b90614944565b60405180910390fd5b611c20848484846129b8565b50505050565b600e602052816000526040600020602052806000526040600020600091509150508060000154908060010154908060030154905083565b6060611c6882612349565b611ca7576040517f08c379a0000000000000000000000000000000000000000000000000000000008152600401611c9e90614904565b60405180910390fd5b6060600860008481526020019081526020016000208054600181600116156101000203166002900480601f016020809104026020016040519081016040528092919081815260200182805460018160011615610100020316600290048015611d505780601f10611d2557610100808354040283529160200191611d50565b820191906000526020600020905b815481529060010190602001808311611d3357829003601f168201915b505050505090506060611d61611104565b9050600081511415611d77578192505050611ddb565b600082511115611dac578082604051602001611d949291906145ad565b60405160208183030381529060405292505050611ddb565b80611db685612a14565b604051602001611dc79291906145ad565b604051602081830303815290604052925050505b919050565b60006011600084815260200190815260200160002060009054906101000a900460ff1615611e465760006011600085815260200190815260200160002060006101000a81548160ff021916908315150217905550611e3d82612b5b565b60019050611e4b565b600090505b92915050565b6000600b600083815260200190815260200160002090506000600e60003373ffffffffffffffffffffffffffffffffffffffff1673ffffffffffffffffffffffffffffffffffffffff1681526020019081526020016000206000848152602001908152602001600020905060005b8160030154811015611f345783826004018281548110611edb57fe5b90600052602060002001541415611f27576040517f08c379a0000000000000000000000000000000000000000000000000000000008152600401611f1e90614704565b60405180910390fd5b8080600101915050611ebf565b50611f3e83610d79565b611f7d576040517f08c379a0000000000000000000000000000000000000000000000000000000008152600401611f7490614984565b60405180910390fd5b600181600301600082825401925050819055508060040183908060018154018082558091505060019003906000526020600020016000909190919091505560006064603284600601540281611fce57fe5b0490503373ffffffffffffffffffffffffffffffffffffffff166108fc829081150290604051600060405180830381858888f19350505050158015612017573d6000803e3d6000fd5b5080836006016000828254039250508190555080600f600082825401925050819055507f356422e982ec6a4ce05173e7e9afd2a3ca3a2d5a81c14aea896fa7994798128084823360405161206d93929190614ad3565b60405180910390a150505050565b3373ffffffffffffffffffffffffffffffffffffffff166108fc479081150290604051600060405180830381858888f193505050501580156120c1573d6000803e3d6000fd5b50565b60606000600b600084815260200190815260200160002090508060040180548060200260200160405190810160405280929190818152602001828054801561212b57602002820191906000526020600020905b815481526020019060010190808311612117575b5050505050915050919050565b6000600560008473ffffffffffffffffffffffffffffffffffffffff1673ffffffffffffffffffffffffffffffffffffffff16815260200190815260200160002060008373ffffffffffffffffffffffffffffffffffffffff1673ffffffffffffffffffffffffffffffffffffffff16815260200190815260200160002060009054906101000a900460ff16905092915050565b600a5481565b600c600081548092919060010191905055506040518060800160405280600c5481526020018381526020018281526020013373ffffffffffffffffffffffffffffffffffffffff16815250600d6000600c54815260200190815260200160002060008201518160000155602082015181600101556040820151816002019080519060200190612262929190613620565b5060608201518160030160006101000a81548173ffffffffffffffffffffffffffffffffffffffff021916908373ffffffffffffffffffffffffffffffffffffffff1602179055509050506000600b6000848152602001908152602001600020905080600401600c54908060018154018082558091505060019003906000526020600020016000909190919091505580600501600081548092919060010191905055507f0ac629a6bcf8d384cf1e51c36f6877eace9d8772af3a20919cdc7c1b5b3937fc600c5484843360405161233c9493929190614b0a565b60405180910390a1505050565b600061235f826002612c8790919063ffffffff16565b9050919050565b600033905090565b816004600083815260200190815260200160002060006101000a81548173ffffffffffffffffffffffffffffffffffffffff021916908373ffffffffffffffffffffffffffffffffffffffff160217905550808273ffffffffffffffffffffffffffffffffffffffff166123e1836110cd565b73ffffffffffffffffffffffffffffffffffffffff167f8c5be1e5ebec7d5bd14f71427d1e84f3dd0314c0f7b2291e5b200ac8c7c3b92560405160405180910390a45050565b60008142443360405160200161243f939291906145d1565b6040516020818303038152906040528051906020012060001c8161245f57fe5b069050919050565b6000600d600084815260200190815260200160002090506000600e60003373ffffffffffffffffffffffffffffffffffffffff1673ffffffffffffffffffffffffffffffffffffffff1681526020019081526020016000206000836001015481526020019081526020016000209050806002018260000154908060018154018082558091505060019003906000526020600020016000909190919091505580600101600081548092919060010191905055506000600b60008460010154815260200190815260200160002090508381600601600082825401925050819055505050505050565b600061255b82600001612ca1565b9050919050565b600061256d82612349565b6125ac576040517f08c379a00000000000000000000000000000000000000000000000000000000081526004016125a390614804565b60405180910390fd5b60006125b7836110cd565b90508073ffffffffffffffffffffffffffffffffffffffff168473ffffffffffffffffffffffffffffffffffffffff16148061262657508373ffffffffffffffffffffffffffffffffffffffff1661260e84610a9e565b73ffffffffffffffffffffffffffffffffffffffff16145b8061263757506126368185612138565b5b91505092915050565b8273ffffffffffffffffffffffffffffffffffffffff16612660826110cd565b73ffffffffffffffffffffffffffffffffffffffff16146126b6576040517f08c379a00000000000000000000000000000000000000000000000000000000081526004016126ad906148e4565b60405180910390fd5b600073ffffffffffffffffffffffffffffffffffffffff168273ffffffffffffffffffffffffffffffffffffffff161415612726576040517f08c379a000000000000000000000000000000000000000000000000000000000815260040161271d906147a4565b60405180910390fd5b612731838383612cb2565b61273c60008261236e565b61278d81600160008673ffffffffffffffffffffffffffffffffffffffff1673ffffffffffffffffffffffffffffffffffffffff168152602001908152602001600020612cb790919063ffffffff16565b506127df81600160008573ffffffffffffffffffffffffffffffffffffffff1673ffffffffffffffffffffffffffffffffffffffff168152602001908152602001600020612cd190919063ffffffff16565b506127f681836002612ceb9092919063ffffffff16565b50808273ffffffffffffffffffffffffffffffffffffffff168473ffffffffffffffffffffffffffffffffffffffff167fddf252ad1be2c89b69c2b068fc378daa952ba7f163c4a11628f55a4df523b3ef60405160405180910390a4505050565b60006128668360000183612d20565b60001c905092915050565b6000806000806128848660000186612d8d565b915091508160001c8160001c9350935050509250929050565b60006128b0846000018460001b84612e10565b60001c90509392505050565b60006128ca82600001612ea1565b9050919050565b60008082840190508381101561291c576040517f08c379a000000000000000000000000000000000000000000000000000000000815260040161291390614784565b60405180910390fd5b8091505092915050565b612940828260405180602001604052806000815250612eb2565b5050565b61294d82612349565b61298c576040517f08c379a0000000000000000000000000000000000000000000000000000000008152600401612983906148c4565b60405180910390fd5b806008600084815260200190815260200160002090805190602001906129b3929190613620565b505050565b6129c3848484612640565b6129cf84848484612f0d565b612a0e576040517f08c379a0000000000000000000000000000000000000000000000000000000008152600401612a0590614744565b60405180910390fd5b50505050565b60606000821415612a5c576040518060400160405280600181526020017f30000000000000000000000000000000000000000000000000000000000000008152509050612b56565b600082905060005b60008214612a86578080600101915050600a8281612a7e57fe5b049150612a64565b60608167ffffffffffffffff81118015612a9f57600080fd5b506040519080825280601f01601f191660200182016040528015612ad25781602001600182028036833780820191505090505b50905060006001830390508593505b60008414612b4e57600a8481612af357fe5b0660300160f81b82828060019003935081518110612b0d57fe5b60200101907effffffffffffffffffffffffffffffffffffffffffffffffffffffffffffff1916908160001a905350600a8481612b4657fe5b049350612ae1565b819450505050505b919050565b6000600b600083815260200190815260200160002090506000612b818260050154612427565b90506000600e60003373ffffffffffffffffffffffffffffffffffffffff1673ffffffffffffffffffffffffffffffffffffffff1681526020019081526020016000206000858152602001908152602001600020905080600201836004018381548110612bea57fe5b9060005260206000200154908060018154018082558091505060019003906000526020600020016000909190919091505580600101600081548092919060010191905055507f7250e9a000b75db9093566b96fc4ee3c86782ba060f4f3a7c1431fbcc9d8ead4836004018381548110612c5f57fe5b906000526020600020015433604051612c799291906149bf565b60405180910390a150505050565b6000612c99836000018360001b613071565b905092915050565b600081600001805490509050919050565b505050565b6000612cc9836000018360001b613094565b905092915050565b6000612ce3836000018360001b61317c565b905092915050565b6000612d17846000018460001b8473ffffffffffffffffffffffffffffffffffffffff1660001b6131ec565b90509392505050565b600081836000018054905011612d6b576040517f08c379a0000000000000000000000000000000000000000000000000000000008152600401612d6290614724565b60405180910390fd5b826000018281548110612d7a57fe5b9060005260206000200154905092915050565b60008082846000018054905011612dd9576040517f08c379a0000000000000000000000000000000000000000000000000000000008152600401612dd090614864565b60405180910390fd5b6000846000018481548110612dea57fe5b906000526020600020906002020190508060000154816001015492509250509250929050565b60008084600101600085815260200190815260200160002054905060008114158390612e72576040517f08c379a0000000000000000000000000000000000000000000000000000000008152600401612e6991906146e2565b60405180910390fd5b50846000016001820381548110612e8557fe5b9060005260206000209060020201600101549150509392505050565b600081600001805490509050919050565b612ebc83836132c8565b612ec96000848484612f0d565b612f08576040517f08c379a0000000000000000000000000000000000000000000000000000000008152600401612eff90614744565b60405180910390fd5b505050565b6000612f2e8473ffffffffffffffffffffffffffffffffffffffff16613456565b612f3b5760019050613069565b606061300263150b7a0260e01b612f50612366565b888787604051602401612f669493929190614629565b604051602081830303815290604052907bffffffffffffffffffffffffffffffffffffffffffffffffffffffff19166020820180517bffffffffffffffffffffffffffffffffffffffffffffffffffffffff8381831617835250505050604051806060016040528060328152602001614e32603291398773ffffffffffffffffffffffffffffffffffffffff166134699092919063ffffffff16565b905060008180602001905181019061301a9190613a5f565b905063150b7a0260e01b7bffffffffffffffffffffffffffffffffffffffffffffffffffffffff1916817bffffffffffffffffffffffffffffffffffffffffffffffffffffffff191614925050505b949350505050565b600080836001016000848152602001908152602001600020541415905092915050565b6000808360010160008481526020019081526020016000205490506000811461317057600060018203905060006001866000018054905003905060008660000182815481106130df57fe5b90600052602060002001549050808760000184815481106130fc57fe5b906000526020600020018190555060018301876001016000838152602001908152602001600020819055508660000180548061313457fe5b60019003818190600052602060002001600090559055866001016000878152602001908152602001600020600090556001945050505050613176565b60009150505b92915050565b60006131888383613481565b6131e15782600001829080600181540180825580915050600190039060005260206000200160009091909190915055826000018054905083600101600084815260200190815260200160002081905550600190506131e6565b600090505b92915050565b6000808460010160008581526020019081526020016000205490506000811415613293578460000160405180604001604052808681526020018581525090806001815401808255809150506001900390600052602060002090600202016000909190919091506000820151816000015560208201518160010155505084600001805490508560010160008681526020019081526020016000208190555060019150506132c1565b828560000160018303815481106132a657fe5b90600052602060002090600202016001018190555060009150505b9392505050565b600073ffffffffffffffffffffffffffffffffffffffff168273ffffffffffffffffffffffffffffffffffffffff161415613338576040517f08c379a000000000000000000000000000000000000000000000000000000000815260040161332f90614884565b60405180910390fd5b61334181612349565b15613381576040517f08c379a000000000000000000000000000000000000000000000000000000000815260040161337890614764565b60405180910390fd5b61338d60008383612cb2565b6133de81600160008573ffffffffffffffffffffffffffffffffffffffff1673ffffffffffffffffffffffffffffffffffffffff168152602001908152602001600020612cd190919063ffffffff16565b506133f581836002612ceb9092919063ffffffff16565b50808273ffffffffffffffffffffffffffffffffffffffff16600073ffffffffffffffffffffffffffffffffffffffff167fddf252ad1be2c89b69c2b068fc378daa952ba7f163c4a11628f55a4df523b3ef60405160405180910390a45050565b600080823b905060008111915050919050565b606061347884846000856134a4565b90509392505050565b600080836001016000848152602001908152602001600020541415905092915050565b6060824710156134e9576040517f08c379a00000000000000000000000000000000000000000000000000000000081526004016134e0906147e4565b60405180910390fd5b6134f285613456565b613531576040517f08c379a000000000000000000000000000000000000000000000000000000000815260040161352890614964565b60405180910390fd5b600060608673ffffffffffffffffffffffffffffffffffffffff16858760405161355b9190614596565b60006040518083038185875af1925050503d8060008114613598576040519150601f19603f3d011682016040523d82523d6000602084013e61359d565b606091505b50915091506135ad8282866135b9565b92505050949350505050565b606083156135c957829050613619565b6000835111156135dc5782518084602001fd5b816040517f08c379a000000000000000000000000000000000000000000000000000000000815260040161361091906146e2565b60405180910390fd5b9392505050565b828054600181600116156101000203166002900490600052602060002090601f016020900481019282601f1061366157805160ff191683800117855561368f565b8280016001018555821561368f579182015b8281111561368e578251825591602001919060010190613673565b5b50905061369c91906136ed565b5090565b8280548282559060005260206000209081019282156136dc579160200282015b828111156136db5782518255916020019190600101906136c0565b5b5090506136e991906136ed565b5090565b5b808211156137065760008160009055506001016136ee565b5090565b60008135905061371981614dd5565b92915050565b600082601f83011261373057600080fd5b813561374361373e82614bba565b614b8d565b9150818183526020840193506020810190508360005b83811015613789578135860161376f8882613826565b845260208401935060208301925050600181019050613759565b5050505092915050565b6000813590506137a281614dec565b92915050565b6000813590506137b781614e03565b92915050565b6000815190506137cc81614e03565b92915050565b600082601f8301126137e357600080fd5b81356137f66137f182614be2565b614b8d565b9150808252602083016020830185838301111561381257600080fd5b61381d838284614d47565b50505092915050565b600082601f83011261383757600080fd5b813561384a61384582614c0e565b614b8d565b9150808252602083016020830185838301111561386657600080fd5b613871838284614d47565b50505092915050565b60008135905061388981614e1a565b92915050565b6000602082840312156138a157600080fd5b60006138af8482850161370a565b91505092915050565b600080604083850312156138cb57600080fd5b60006138d98582860161370a565b92505060206138ea8582860161370a565b9150509250929050565b60008060006060848603121561390957600080fd5b60006139178682870161370a565b93505060206139288682870161370a565b92505060406139398682870161387a565b9150509250925092565b6000806000806080858703121561395957600080fd5b60006139678782880161370a565b94505060206139788782880161370a565b93505060406139898782880161387a565b925050606085013567ffffffffffffffff8111156139a657600080fd5b6139b2878288016137d2565b91505092959194509250565b600080604083850312156139d157600080fd5b60006139df8582860161370a565b92505060206139f085828601613793565b9150509250929050565b60008060408385031215613a0d57600080fd5b6000613a1b8582860161370a565b9250506020613a2c8582860161387a565b9150509250929050565b600060208284031215613a4857600080fd5b6000613a56848285016137a8565b91505092915050565b600060208284031215613a7157600080fd5b6000613a7f848285016137bd565b91505092915050565b600060208284031215613a9a57600080fd5b600082013567ffffffffffffffff811115613ab457600080fd5b613ac084828501613826565b91505092915050565b600080600080600060a08688031215613ae157600080fd5b600086013567ffffffffffffffff811115613afb57600080fd5b613b0788828901613826565b955050602086013567ffffffffffffffff811115613b2457600080fd5b613b3088828901613826565b945050604086013567ffffffffffffffff811115613b4d57600080fd5b613b5988828901613826565b935050606086013567ffffffffffffffff811115613b7657600080fd5b613b828882890161371f565b9250506080613b938882890161387a565b9150509295509295909350565b600060208284031215613bb257600080fd5b6000613bc08482850161387a565b91505092915050565b60008060408385031215613bdc57600080fd5b6000613bea8582860161387a565b925050602083013567ffffffffffffffff811115613c0757600080fd5b613c1385828601613826565b9150509250929050565b60008060408385031215613c3057600080fd5b6000613c3e8582860161387a565b9250506020613c4f8582860161387a565b9150509250929050565b6000613c658383614561565b60208301905092915050565b613c7a81614cd3565b82525050565b613c91613c8c82614cd3565b614d89565b82525050565b613ca081614cc1565b82525050565b6000613cb182614c4a565b613cbb8185614c78565b9350613cc683614c3a565b8060005b83811015613cf7578151613cde8882613c59565b9750613ce983614c6b565b925050600181019050613cca565b5085935050505092915050565b613d0d81614ce5565b82525050565b6000613d1e82614c55565b613d288185614c89565b9350613d38818560208601614d56565b613d4181614db7565b840191505092915050565b6000613d5782614c55565b613d618185614c9a565b9350613d71818560208601614d56565b80840191505092915050565b6000613d8882614c60565b613d928185614ca5565b9350613da2818560208601614d56565b613dab81614db7565b840191505092915050565b6000613dc182614c60565b613dcb8185614cb6565b9350613ddb818560208601614d56565b80840191505092915050565b6000613df4602383614ca5565b91507f596f7520616c726561647920776f6e20666f72207468697320636f6c6c65637460008301527f696f6e00000000000000000000000000000000000000000000000000000000006020830152604082019050919050565b6000613e5a602283614ca5565b91507f456e756d657261626c655365743a20696e646578206f7574206f6620626f756e60008301527f64730000000000000000000000000000000000000000000000000000000000006020830152604082019050919050565b6000613ec0603283614ca5565b91507f4552433732313a207472616e7366657220746f206e6f6e20455243373231526560008301527f63656976657220696d706c656d656e74657200000000000000000000000000006020830152604082019050919050565b6000613f26601c83614ca5565b91507f4552433732313a20746f6b656e20616c7265616479206d696e746564000000006000830152602082019050919050565b6000613f66601b83614ca5565b91507f536166654d6174683a206164646974696f6e206f766572666c6f7700000000006000830152602082019050919050565b6000613fa6602483614ca5565b91507f4552433732313a207472616e7366657220746f20746865207a65726f2061646460008301527f72657373000000000000000000000000000000000000000000000000000000006020830152604082019050919050565b600061400c601983614ca5565b91507f4552433732313a20617070726f766520746f2063616c6c6572000000000000006000830152602082019050919050565b600061404c602683614ca5565b91507f416464726573733a20696e73756666696369656e742062616c616e636520666f60008301527f722063616c6c00000000000000000000000000000000000000000000000000006020830152604082019050919050565b60006140b2602c83614ca5565b91507f4552433732313a206f70657261746f7220717565727920666f72206e6f6e657860008301527f697374656e7420746f6b656e00000000000000000000000000000000000000006020830152604082019050919050565b6000614118603883614ca5565b91507f4552433732313a20617070726f76652063616c6c6572206973206e6f74206f7760008301527f6e6572206e6f7220617070726f76656420666f7220616c6c00000000000000006020830152604082019050919050565b600061417e602a83614ca5565b91507f4552433732313a2062616c616e636520717565727920666f7220746865207a6560008301527f726f2061646472657373000000000000000000000000000000000000000000006020830152604082019050919050565b60006141e4602283614ca5565b91507f456e756d657261626c654d61703a20696e646578206f7574206f6620626f756e60008301527f64730000000000000000000000000000000000000000000000000000000000006020830152604082019050919050565b600061424a602083614ca5565b91507f4552433732313a206d696e7420746f20746865207a65726f20616464726573736000830152602082019050919050565b600061428a602c83614ca5565b91507f4552433732313a20617070726f76656420717565727920666f72206e6f6e657860008301527f697374656e7420746f6b656e00000000000000000000000000000000000000006020830152604082019050919050565b60006142f0602c83614ca5565b91507f4552433732314d657461646174613a2055524920736574206f66206e6f6e657860008301527f697374656e7420746f6b656e00000000000000000000000000000000000000006020830152604082019050919050565b6000614356602983614ca5565b91507f4552433732313a207472616e73666572206f6620746f6b656e2074686174206960008301527f73206e6f74206f776e00000000000000000000000000000000000000000000006020830152604082019050919050565b60006143bc602f83614ca5565b91507f4552433732314d657461646174613a2055524920717565727920666f72206e6f60008301527f6e6578697374656e7420746f6b656e00000000000000000000000000000000006020830152604082019050919050565b6000614422602183614ca5565b91507f4552433732313a20617070726f76616c20746f2063757272656e74206f776e6560008301527f72000000000000000000000000000000000000000000000000000000000000006020830152604082019050919050565b6000614488603183614ca5565b91507f4552433732313a207472616e736665722063616c6c6572206973206e6f74206f60008301527f776e6572206e6f7220617070726f7665640000000000000000000000000000006020830152604082019050919050565b60006144ee601d83614ca5565b91507f416464726573733a2063616c6c20746f206e6f6e2d636f6e74726163740000006000830152602082019050919050565b600061452e601f83614ca5565b91507f596f7520646964206e6f74206861766520616c6c2074686520706965636573006000830152602082019050919050565b61456a81614d3d565b82525050565b61457981614d3d565b82525050565b61459061458b82614d3d565b614dad565b82525050565b60006145a28284613d4c565b915081905092915050565b60006145b98285613db6565b91506145c58284613db6565b91508190509392505050565b60006145dd828661457f565b6020820191506145ed828561457f565b6020820191506145fd8284613c80565b601482019150819050949350505050565b60006020820190506146236000830184613c97565b92915050565b600060808201905061463e6000830187613c71565b61464b6020830186613c97565b6146586040830185614570565b818103606083015261466a8184613d13565b905095945050505050565b6000602082019050818103600083015261468f8184613ca6565b905092915050565b600060408201905081810360008301526146b18185613ca6565b90506146c06020830184613c71565b9392505050565b60006020820190506146dc6000830184613d04565b92915050565b600060208201905081810360008301526146fc8184613d7d565b905092915050565b6000602082019050818103600083015261471d81613de7565b9050919050565b6000602082019050818103600083015261473d81613e4d565b9050919050565b6000602082019050818103600083015261475d81613eb3565b9050919050565b6000602082019050818103600083015261477d81613f19565b9050919050565b6000602082019050818103600083015261479d81613f59565b9050919050565b600060208201905081810360008301526147bd81613f99565b9050919050565b600060208201905081810360008301526147dd81613fff565b9050919050565b600060208201905081810360008301526147fd8161403f565b9050919050565b6000602082019050818103600083015261481d816140a5565b9050919050565b6000602082019050818103600083015261483d8161410b565b9050919050565b6000602082019050818103600083015261485d81614171565b9050919050565b6000602082019050818103600083015261487d816141d7565b9050919050565b6000602082019050818103600083015261489d8161423d565b9050919050565b600060208201905081810360008301526148bd8161427d565b9050919050565b600060208201905081810360008301526148dd816142e3565b9050919050565b600060208201905081810360008301526148fd81614349565b9050919050565b6000602082019050818103600083015261491d816143af565b9050919050565b6000602082019050818103600083015261493d81614415565b9050919050565b6000602082019050818103600083015261495d8161447b565b9050919050565b6000602082019050818103600083015261497d816144e1565b9050919050565b6000602082019050818103600083015261499d81614521565b9050919050565b60006020820190506149b96000830184614570565b92915050565b60006040820190506149d46000830185614570565b6149e16020830184613c71565b9392505050565b60006060820190506149fd6000830186614570565b8181036020830152614a0f8185613d7d565b9050614a1e6040830184613c71565b949350505050565b600060e082019050614a3b600083018a614570565b8181036020830152614a4d8189613d7d565b90508181036040830152614a618188613d7d565b90508181036060830152614a758187613d7d565b9050614a846080830186614570565b614a9160a0830185614570565b614a9e60c0830184613c71565b98975050505050505050565b6000604082019050614abf6000830185614570565b614acc6020830184614570565b9392505050565b6000606082019050614ae86000830186614570565b614af56020830185614570565b614b026040830184613c71565b949350505050565b6000608082019050614b1f6000830187614570565b614b2c6020830186614570565b8181036040830152614b3e8185613d7d565b9050614b4d6060830184613c71565b95945050505050565b6000606082019050614b6b6000830186614570565b614b786020830185614570565b614b856040830184614570565b949350505050565b6000604051905081810181811067ffffffffffffffff82111715614bb057600080fd5b8060405250919050565b600067ffffffffffffffff821115614bd157600080fd5b602082029050602081019050919050565b600067ffffffffffffffff821115614bf957600080fd5b601f19601f8301169050602081019050919050565b600067ffffffffffffffff821115614c2557600080fd5b601f19601f8301169050602081019050919050565b6000819050602082019050919050565b600081519050919050565b600081519050919050565b600081519050919050565b6000602082019050919050565b600082825260208201905092915050565b600082825260208201905092915050565b600081905092915050565b600082825260208201905092915050565b600081905092915050565b6000614ccc82614d1d565b9050919050565b6000614cde82614d1d565b9050919050565b60008115159050919050565b60007fffffffff0000000000000000000000000000000000000000000000000000000082169050919050565b600073ffffffffffffffffffffffffffffffffffffffff82169050919050565b6000819050919050565b82818337600083830152505050565b60005b83811015614d74578082015181840152602081019050614d59565b83811115614d83576000848401525b50505050565b6000614d9482614d9b565b9050919050565b6000614da682614dc8565b9050919050565b6000819050919050565b6000601f19601f8301169050919050565b60008160601b9050919050565b614dde81614cc1565b8114614de957600080fd5b50565b614df581614ce5565b8114614e0057600080fd5b50565b614e0c81614cf1565b8114614e1757600080fd5b50565b614e2381614d3d565b8114614e2e57600080fd5b5056fe4552433732313a207472616e7366657220746f206e6f6e20455243373231526563656976657220696d706c656d656e7465724552433732313a206f776e657220717565727920666f72206e6f6e6578697374656e7420746f6b656ea2646970667358221220ca2f84b52f600cffdc02786bc04b9cc1336b710322bd23509c42b7d4a882462e64736f6c634300060c0033",
  "linkReferences": {},
  "deployedLinkReferences": {}
}