{
  "_format": "hh-sol-artifact-1",
  "contractName": "CollectNFT",
  "sourceName": "contracts/CollectNFT.sol",
  "abi": [
    {
      "inputs": [],
      "stateMutability": "nonpayable",
      "type": "constructor"
    },
    {
      "anonymous": false,
      "inputs": [
        {
          "indexed": false,
          "internalType": "uint256",
          "name": "poolId",
          "type": "uint256"
        },
        {
          "indexed": false,
          "internalType": "uint256",
          "name": "amount",
          "type": "uint256"
        },
        {
          "indexed": false,
          "internalType": "address payable",
          "name": "from",
          "type": "address"
        }
      ],
      "name": "CollectionFunded",
      "type": "event"
    },
    {
      "anonymous": false,
      "inputs": [
        {
          "indexed": false,
          "internalType": "uint256",
          "name": "imageId",
          "type": "uint256"
        },
        {
          "indexed": false,
          "internalType": "uint256",
          "name": "poolId",
          "type": "uint256"
        },
        {
          "indexed": false,
          "internalType": "string",
          "name": "url",
          "type": "string"
        },
        {
          "indexed": false,
          "internalType": "address payable",
          "name": "owner",
          "type": "address"
        }
      ],
      "name": "ImageCreated",
      "type": "event"
    },
    {
      "anonymous": false,
      "inputs": [
        {
          "indexed": false,
          "internalType": "uint256[]",
          "name": "imageIdList",
          "type": "uint256[]"
        },
        {
          "indexed": false,
          "internalType": "address payable",
          "name": "owner",
          "type": "address"
        }
      ],
      "name": "LootBoxResult",
      "type": "event"
    },
    {
      "anonymous": false,
      "inputs": [
        {
          "indexed": false,
          "internalType": "uint256",
          "name": "poolId",
          "type": "uint256"
        },
        {
          "indexed": false,
          "internalType": "uint256",
          "name": "amount",
          "type": "uint256"
        },
        {
          "indexed": false,
          "internalType": "address payable",
          "name": "winner",
          "type": "address"
        }
      ],
      "name": "PrizeWon",
      "type": "event"
    },
    {
      "inputs": [
        {
          "internalType": "uint256",
          "name": "_poolId",
          "type": "uint256"
        },
        {
          "internalType": "string",
          "name": "_url",
          "type": "string"
        }
      ],
      "name": "addImageToPool",
      "outputs": [],
      "stateMutability": "nonpayable",
      "type": "function"
    },
    {
      "inputs": [],
      "name": "amountWon",
      "outputs": [
        {
          "internalType": "uint256",
          "name": "",
          "type": "uint256"
        }
      ],
      "stateMutability": "view",
      "type": "function"
    },
    {
      "inputs": [],
      "name": "buyLootBox",
      "outputs": [],
      "stateMutability": "payable",
      "type": "function"
    },
    {
      "inputs": [
        {
          "internalType": "uint256",
          "name": "_poolId",
          "type": "uint256"
        }
      ],
      "name": "checkWinner",
      "outputs": [
        {
          "internalType": "bool",
          "name": "",
          "type": "bool"
        }
      ],
      "stateMutability": "view",
      "type": "function"
    },
    {
      "inputs": [
        {
          "internalType": "uint256",
          "name": "_poolId",
          "type": "uint256"
        }
      ],
      "name": "claimPrize",
      "outputs": [],
      "stateMutability": "nonpayable",
      "type": "function"
    },
    {
      "inputs": [
        {
          "internalType": "string",
          "name": "_collectionName",
          "type": "string"
        },
        {
          "internalType": "string",
          "name": "_creatorName",
          "type": "string"
        },
        {
          "internalType": "string",
          "name": "_description",
          "type": "string"
        },
        {
          "internalType": "string[]",
          "name": "_urls",
          "type": "string[]"
        },
        {
          "internalType": "uint256",
          "name": "_arrLength",
          "type": "uint256"
        }
      ],
      "name": "createPool",
      "outputs": [],
      "stateMutability": "nonpayable",
      "type": "function"
    },
    {
      "inputs": [
        {
          "internalType": "uint256",
          "name": "_poolId",
          "type": "uint256"
        }
      ],
      "name": "createUserCard",
      "outputs": [],
      "stateMutability": "nonpayable",
      "type": "function"
    },
    {
      "inputs": [
        {
          "internalType": "uint256",
          "name": "_poolId",
          "type": "uint256"
        }
      ],
      "name": "earnNFTofImageByPool",
      "outputs": [],
      "stateMutability": "nonpayable",
      "type": "function"
    },
    {
      "inputs": [
        {
          "internalType": "uint256",
          "name": "_poolId",
          "type": "uint256"
        }
      ],
      "name": "fundACollection",
      "outputs": [],
      "stateMutability": "payable",
      "type": "function"
    },
    {
      "inputs": [
        {
          "internalType": "uint256",
          "name": "_poolId",
          "type": "uint256"
        },
        {
          "internalType": "uint256",
          "name": "_imageId",
          "type": "uint256"
        }
      ],
      "name": "getPoolImageId",
      "outputs": [
        {
          "internalType": "uint256",
          "name": "",
          "type": "uint256"
        }
      ],
      "stateMutability": "view",
      "type": "function"
    },
    {
      "inputs": [
        {
          "internalType": "uint256",
          "name": "_poolId",
          "type": "uint256"
        }
      ],
      "name": "getPoolImages",
      "outputs": [
        {
          "internalType": "uint256[]",
          "name": "",
          "type": "uint256[]"
        }
      ],
      "stateMutability": "view",
      "type": "function"
    },
    {
      "inputs": [],
      "name": "getPrizePool",
      "outputs": [
        {
          "internalType": "uint256",
          "name": "",
          "type": "uint256"
        }
      ],
      "stateMutability": "view",
      "type": "function"
    },
    {
      "inputs": [],
      "name": "getRandomNumber",
      "outputs": [
        {
          "internalType": "bytes32",
          "name": "requestId",
          "type": "bytes32"
        }
      ],
      "stateMutability": "nonpayable",
      "type": "function"
    },
    {
      "inputs": [
        {
          "internalType": "uint256",
          "name": "_poolId",
          "type": "uint256"
        }
      ],
      "name": "getUserImages",
      "outputs": [
        {
          "internalType": "uint256[]",
          "name": "",
          "type": "uint256[]"
        }
      ],
      "stateMutability": "view",
      "type": "function"
    },
    {
      "inputs": [],
      "name": "imageCount",
      "outputs": [
        {
          "internalType": "uint256",
          "name": "",
          "type": "uint256"
        }
      ],
      "stateMutability": "view",
      "type": "function"
    },
    {
      "inputs": [
        {
          "internalType": "uint256",
          "name": "",
          "type": "uint256"
        }
      ],
      "name": "images",
      "outputs": [
        {
          "internalType": "uint256",
          "name": "id",
          "type": "uint256"
        },
        {
          "internalType": "uint256",
          "name": "poolId",
          "type": "uint256"
        },
        {
          "internalType": "string",
          "name": "url",
          "type": "string"
        },
        {
          "internalType": "address payable",
          "name": "owner",
          "type": "address"
        }
      ],
      "stateMutability": "view",
      "type": "function"
    },
    {
      "inputs": [],
      "name": "poolCount",
      "outputs": [
        {
          "internalType": "uint256",
          "name": "",
          "type": "uint256"
        }
      ],
      "stateMutability": "view",
      "type": "function"
    },
    {
      "inputs": [
        {
          "internalType": "uint256",
          "name": "",
          "type": "uint256"
        }
      ],
      "name": "pools",
      "outputs": [
        {
          "internalType": "uint256",
          "name": "id",
          "type": "uint256"
        },
        {
          "internalType": "string",
          "name": "collectionName",
          "type": "string"
        },
        {
          "internalType": "string",
          "name": "creatorName",
          "type": "string"
        },
        {
          "internalType": "string",
          "name": "description",
          "type": "string"
        },
        {
          "internalType": "uint256",
          "name": "imageCount",
          "type": "uint256"
        },
        {
          "internalType": "uint256",
          "name": "poolPrize",
          "type": "uint256"
        },
        {
          "internalType": "address payable",
          "name": "owner",
          "type": "address"
        }
      ],
      "stateMutability": "view",
      "type": "function"
    },
    {
      "inputs": [],
      "name": "randomResult",
      "outputs": [
        {
          "internalType": "uint256",
          "name": "",
          "type": "uint256"
        }
      ],
      "stateMutability": "view",
      "type": "function"
    },
    {
      "inputs": [
        {
          "internalType": "bytes32",
          "name": "requestId",
          "type": "bytes32"
        },
        {
          "internalType": "uint256",
          "name": "randomness",
          "type": "uint256"
        }
      ],
      "name": "rawFulfillRandomness",
      "outputs": [],
      "stateMutability": "nonpayable",
      "type": "function"
    },
    {
      "inputs": [
        {
          "internalType": "address",
          "name": "",
          "type": "address"
        },
        {
          "internalType": "uint256",
          "name": "",
          "type": "uint256"
        }
      ],
      "name": "userCardList",
      "outputs": [
        {
          "internalType": "uint256",
          "name": "poolId",
          "type": "uint256"
        },
        {
          "internalType": "uint256",
          "name": "imageCount",
          "type": "uint256"
        },
        {
          "internalType": "uint256",
          "name": "winCount",
          "type": "uint256"
        }
      ],
      "stateMutability": "view",
      "type": "function"
    },
    {
      "inputs": [],
      "name": "withdrawETH",
      "outputs": [],
      "stateMutability": "nonpayable",
      "type": "function"
    },
    {
      "inputs": [],
      "name": "withdrawLink",
      "outputs": [],
      "stateMutability": "nonpayable",
      "type": "function"
    }
  ],
  "bytecode": "0x60c060405260006001556000600355600060065534801561001f57600080fd5b5073b3dccb4cf7a26f6cf6b120cf5a73875b7bbc655b7301be23585060835e02b77ef475b0cc51aa1e07098173ffffffffffffffffffffffffffffffffffffffff1660a08173ffffffffffffffffffffffffffffffffffffffff1660601b815250508073ffffffffffffffffffffffffffffffffffffffff1660808173ffffffffffffffffffffffffffffffffffffffff1660601b8152505050507f2ed0feb3e7fd2022120aa84fab1945545a9f2ffc9076fd6156fa96eaff4c131160001b60078190555067016345785d8a000060088190555060805160601c60a05160601c6129f061013060003980610b01528061191652508061096552806109a252806113d752806118da52506129f06000f3fe6080604052600436106101405760003560e01c8063a09ae617116100b6578063dbdff2c11161006f578063dbdff2c11461044b578063e086e5ec14610476578063e421b1671461048d578063edb31ffc146104ca578063f525cb68146104f3578063f80b39331461051e57610140565b8063a09ae61714610332578063a79744961461034e578063ac4afa3814610377578063aceb8e92146103ba578063c2e216ed146103e3578063d70981541461042257610140565b806342619f661161010857806342619f6614610231578063848564821461025c578063884bf67c1461029c5780638dc654a2146102c757806392053b63146102de57806394985ddd1461030957610140565b8063137919c314610145578063188549391461014f57806328102e541461018c57806330d5fa49146101b75780633272a2c0146101f4575b600080fd5b61014d610547565b005b34801561015b57600080fd5b5061017660048036038101906101719190611ed3565b610666565b6040516101839190612454565b60405180910390f35b34801561019857600080fd5b506101a161077b565b6040516101ae91906125b8565b60405180910390f35b3480156101c357600080fd5b506101de60048036038101906101d99190611ed3565b610781565b6040516101eb9190612402565b60405180910390f35b34801561020057600080fd5b5061021b60048036038101906102169190611f79565b610832565b60405161022891906125b8565b60405180910390f35b34801561023d57600080fd5b5061024661086d565b60405161025391906125b8565b60405180910390f35b34801561026857600080fd5b50610283600480360381019061027e9190611ed3565b610873565b60405161029394939291906126b7565b60405180910390f35b3480156102a857600080fd5b506102b161095b565b6040516102be91906125b8565b60405180910390f35b3480156102d357600080fd5b506102dc610963565b005b3480156102ea57600080fd5b506102f3610af9565b60405161030091906125b8565b60405180910390f35b34801561031557600080fd5b50610330600480360381019061032b9190611dc0565b610aff565b005b61034c60048036038101906103479190611ed3565b610b9b565b005b34801561035a57600080fd5b5061037560048036038101906103709190611dfc565b610c03565b005b34801561038357600080fd5b5061039e60048036038101906103999190611ed3565b610de0565b6040516103b197969594939291906125d3565b60405180910390f35b3480156103c657600080fd5b506103e160048036038101906103dc9190611ed3565b61100a565b005b3480156103ef57600080fd5b5061040a60048036038101906104059190611d5b565b61116f565b60405161041993929190612703565b60405180910390f35b34801561042e57600080fd5b5061044960048036038101906104449190611ed3565b6111a6565b005b34801561045757600080fd5b506104606113d0565b60405161046d919061246f565b60405180910390f35b34801561048257600080fd5b5061048b6114d1565b005b34801561049957600080fd5b506104b460048036038101906104af9190611ed3565b61151a565b6040516104c19190612402565b60405180910390f35b3480156104d657600080fd5b506104f160048036038101906104ec9190611ed3565b61158e565b005b3480156104ff57600080fd5b50610508611668565b60405161051591906125b8565b60405180910390f35b34801561052a57600080fd5b5061054560048036038101906105409190611f25565b61166e565b005b61054f6113d0565b506060600567ffffffffffffffff8111801561056a57600080fd5b506040519080825280602002602001820160405280156105995781602001602082028036833780820191505090505b50905060005b60058110156106295760006001600354600954846040516020016105c4929190612657565b6040516020818303038152906040528051906020012060001c816105e457fe5b060190506000600534816105f457fe5b04905061060182826117e5565b8184848151811061060e57fe5b6020026020010181815250505050808060010191505061059f565b507f5c73fe7f0d2f4fe64e464570cf9b96a856b3816833404ff44db80790ac75fe4c813360405161065b929190612424565b60405180910390a150565b6000806002600084815260200190815260200160002090506000600560003373ffffffffffffffffffffffffffffffffffffffff1673ffffffffffffffffffffffffffffffffffffffff168152602001908152602001600020600085815260200190815260200160002090506000805b836005015481101561076d576000915060005b83600101548110156107455783600201818154811061070457fe5b906000526020600020015485600401838154811061071e57fe5b906000526020600020015414156107385760019250610745565b80806001019150506106e9565b50600015158215151415610760576000945050505050610776565b80806001019150506106d6565b50600193505050505b919050565b60065481565b60606000600560003373ffffffffffffffffffffffffffffffffffffffff1673ffffffffffffffffffffffffffffffffffffffff168152602001908152602001600020600084815260200190815260200160002090508060020180548060200260200160405190810160405280929190818152602001828054801561082557602002820191906000526020600020905b815481526020019060010190808311610811575b5050505050915050919050565b60008060026000858152602001908152602001600020905080600401838154811061085957fe5b906000526020600020015491505092915050565b60095481565b6004602052806000526040600020600091509050806000015490806001015490806002018054600181600116156101000203166002900480601f01602080910402602001604051908101604052809291908181526020018280546001816001161561010002031660029004801561092b5780601f106109005761010080835404028352916020019161092b565b820191906000526020600020905b81548152906001019060200180831161090e57829003601f168201915b5050505050908060030160009054906101000a900473ffffffffffffffffffffffffffffffffffffffff16905084565b600047905090565b7f000000000000000000000000000000000000000000000000000000000000000073ffffffffffffffffffffffffffffffffffffffff1663a9059cbb337f000000000000000000000000000000000000000000000000000000000000000073ffffffffffffffffffffffffffffffffffffffff166370a08231306040518263ffffffff1660e01b81526004016109f99190612380565b60206040518083038186803b158015610a1157600080fd5b505afa158015610a25573d6000803e3d6000fd5b505050506040513d601f19601f82011682018060405250810190610a499190611efc565b6040518363ffffffff1660e01b8152600401610a6692919061239b565b602060405180830381600087803b158015610a8057600080fd5b505af1158015610a94573d6000803e3d6000fd5b505050506040513d601f19601f82011682018060405250810190610ab89190611d97565b610af7576040517f08c379a0000000000000000000000000000000000000000000000000000000008152600401610aee90612558565b60405180910390fd5b565b60035481565b7f000000000000000000000000000000000000000000000000000000000000000073ffffffffffffffffffffffffffffffffffffffff163373ffffffffffffffffffffffffffffffffffffffff1614610b8d576040517f08c379a0000000000000000000000000000000000000000000000000000000008152600401610b8490612578565b60405180910390fd5b610b9782826118cb565b5050565b60006002600083815260200190815260200160002090503481600601600082825401925050819055507f0767372a71bee02dafa14dcddb6abca5a4a2ca7db44b4f0ccbb9496887054129823433604051610bf793929190612680565b60405180910390a15050565b6001600081548092919060010191905055506040518061010001604052806001548152602001868152602001858152602001848152602001600067ffffffffffffffff81118015610c5357600080fd5b50604051908082528060200260200182016040528015610c825781602001602082028036833780820191505090505b50815260200160008152602001600081526020013373ffffffffffffffffffffffffffffffffffffffff16815250600260006001548152602001908152602001600020600082015181600001556020820151816001019080519060200190610ceb929190611b40565b506040820151816002019080519060200190610d08929190611b40565b506060820151816003019080519060200190610d25929190611b40565b506080820151816004019080519060200190610d42929190611bc0565b5060a0820151816005015560c0820151816006015560e08201518160070160006101000a81548173ffffffffffffffffffffffffffffffffffffffff021916908373ffffffffffffffffffffffffffffffffffffffff16021790555090505060005b81811015610dd857610dcb600154848381518110610dbe57fe5b602002602001015161166e565b8080600101915050610da4565b505050505050565b6002602052806000526040600020600091509050806000015490806001018054600181600116156101000203166002900480601f016020809104026020016040519081016040528092919081815260200182805460018160011615610100020316600290048015610e925780601f10610e6757610100808354040283529160200191610e92565b820191906000526020600020905b815481529060010190602001808311610e7557829003601f168201915b505050505090806002018054600181600116156101000203166002900480601f016020809104026020016040519081016040528092919081815260200182805460018160011615610100020316600290048015610f305780601f10610f0557610100808354040283529160200191610f30565b820191906000526020600020905b815481529060010190602001808311610f1357829003601f168201915b505050505090806003018054600181600116156101000203166002900480601f016020809104026020016040519081016040528092919081815260200182805460018160011615610100020316600290048015610fce5780601f10610fa357610100808354040283529160200191610fce565b820191906000526020600020905b815481529060010190602001808311610fb157829003601f168201915b5050505050908060050154908060060154908060070160009054906101000a900473ffffffffffffffffffffffffffffffffffffffff16905087565b6040518060a0016040528082815260200160008152602001600067ffffffffffffffff8111801561103a57600080fd5b506040519080825280602002602001820160405280156110695781602001602082028036833780820191505090505b50815260200160008152602001600067ffffffffffffffff8111801561108e57600080fd5b506040519080825280602002602001820160405280156110bd5781602001602082028036833780820191505090505b50815250600560003373ffffffffffffffffffffffffffffffffffffffff1673ffffffffffffffffffffffffffffffffffffffff168152602001908152602001600020600083815260200190815260200160002060008201518160000155602082015181600101556040820151816002019080519060200190611141929190611bc0565b50606082015181600301556080820151816004019080519060200190611168929190611bc0565b5090505050565b6005602052816000526040600020602052806000526040600020600091509150508060000154908060010154908060030154905083565b60006002600083815260200190815260200160002090506000600560003373ffffffffffffffffffffffffffffffffffffffff1673ffffffffffffffffffffffffffffffffffffffff1681526020019081526020016000206000848152602001908152602001600020905060005b8160030154811015611289578382600401828154811061123057fe5b9060005260206000200154141561127c576040517f08c379a0000000000000000000000000000000000000000000000000000000008152600401611273906124f8565b60405180910390fd5b8080600101915050611214565b5061129383610666565b6112d2576040517f08c379a00000000000000000000000000000000000000000000000000000000081526004016112c990612598565b60405180910390fd5b60018160030160008282540192505081905550806004018390806001815401808255809150506001900390600052602060002001600090919091909150556000606460328460060154028161132357fe5b0490503373ffffffffffffffffffffffffffffffffffffffff166108fc829081150290604051600060405180830381858888f1935050505015801561136c573d6000803e3d6000fd5b50808360060160008282540392505081905550806006600082825401925050819055507f356422e982ec6a4ce05173e7e9afd2a3ca3a2d5a81c14aea896fa799479812808482336040516113c293929190612680565b60405180910390a150505050565b60006008547f000000000000000000000000000000000000000000000000000000000000000073ffffffffffffffffffffffffffffffffffffffff166370a08231306040518263ffffffff1660e01b815260040161142e9190612380565b60206040518083038186803b15801561144657600080fd5b505afa15801561145a573d6000803e3d6000fd5b505050506040513d601f19601f8201168201806040525081019061147e9190611efc565b116114be576040517f08c379a00000000000000000000000000000000000000000000000000000000081526004016114b590612538565b60405180910390fd5b6114cc6007546008546118d6565b905090565b3373ffffffffffffffffffffffffffffffffffffffff166108fc479081150290604051600060405180830381858888f19350505050158015611517573d6000803e3d6000fd5b50565b606060006002600084815260200190815260200160002090508060040180548060200260200160405190810160405280929190818152602001828054801561158157602002820191906000526020600020905b81548152602001906001019080831161156d575b5050505050915050919050565b600060026000838152602001908152602001600020905060006115b48260050154611a3c565b90506000600560003373ffffffffffffffffffffffffffffffffffffffff1673ffffffffffffffffffffffffffffffffffffffff168152602001908152602001600020600085815260200190815260200160002090508060020183600401838154811061161d57fe5b90600052602060002001549080600181540180825580915050600190039060005260206000200160009091909190915055806001016000815480929190600101919050555050505050565b60015481565b600360008154809291906001019190505550604051806080016040528060035481526020018381526020018281526020013373ffffffffffffffffffffffffffffffffffffffff16815250600460006003548152602001908152602001600020600082015181600001556020820151816001015560408201518160020190805190602001906116fe929190611b40565b5060608201518160030160006101000a81548173ffffffffffffffffffffffffffffffffffffffff021916908373ffffffffffffffffffffffffffffffffffffffff160217905550905050600060026000848152602001908152602001600020905080600401600354908060018154018082558091505060019003906000526020600020016000909190919091505580600501600081548092919060010191905055507f0ac629a6bcf8d384cf1e51c36f6877eace9d8772af3a20919cdc7c1b5b3937fc6003548484336040516117d894939291906126b7565b60405180910390a1505050565b60006004600084815260200190815260200160002090506000600560003373ffffffffffffffffffffffffffffffffffffffff1673ffffffffffffffffffffffffffffffffffffffff1681526020019081526020016000206000836001015481526020019081526020016000209050806002018260000154908060018154018082558091505060019003906000526020600020016000909190919091505580600101600081548092919060010191905055506000600260008460010154815260200190815260200160002090508381600601600082825401925050819055505050505050565b806009819055505050565b60007f000000000000000000000000000000000000000000000000000000000000000073ffffffffffffffffffffffffffffffffffffffff16634000aea07f00000000000000000000000000000000000000000000000000000000000000008486600060405160200161194a92919061248a565b6040516020818303038152906040526040518463ffffffff1660e01b8152600401611977939291906123c4565b602060405180830381600087803b15801561199157600080fd5b505af11580156119a5573d6000803e3d6000fd5b505050506040513d601f19601f820116820180604052508101906119c99190611d97565b5060006119eb8460003060008089815260200190815260200160002054611a7c565b9050611a13600160008087815260200190815260200160002054611ab890919063ffffffff16565b60008086815260200190815260200160002081905550611a338482611b0d565b91505092915050565b600081424433604051602001611a5493929190612343565b6040516020818303038152906040528051906020012060001c81611a7457fe5b069050919050565b600084848484604051602001611a9594939291906124b3565b6040516020818303038152906040528051906020012060001c9050949350505050565b600080828401905083811015611b03576040517f08c379a0000000000000000000000000000000000000000000000000000000008152600401611afa90612518565b60405180910390fd5b8091505092915050565b60008282604051602001611b22929190612317565b60405160208183030381529060405280519060200120905092915050565b828054600181600116156101000203166002900490600052602060002090601f016020900481019282601f10611b8157805160ff1916838001178555611baf565b82800160010185558215611baf579182015b82811115611bae578251825591602001919060010190611b93565b5b509050611bbc9190611c0d565b5090565b828054828255906000526020600020908101928215611bfc579160200282015b82811115611bfb578251825591602001919060010190611be0565b5b509050611c099190611c0d565b5090565b5b80821115611c26576000816000905550600101611c0e565b5090565b600081359050611c398161295e565b92915050565b600082601f830112611c5057600080fd5b8135611c63611c5e82612767565b61273a565b9150818183526020840193506020810190508360005b83811015611ca95781358601611c8f8882611cdd565b845260208401935060208301925050600181019050611c79565b5050505092915050565b600081519050611cc281612975565b92915050565b600081359050611cd78161298c565b92915050565b600082601f830112611cee57600080fd5b8135611d01611cfc8261278f565b61273a565b91508082526020830160208301858383011115611d1d57600080fd5b611d288382846128c6565b50505092915050565b600081359050611d40816129a3565b92915050565b600081519050611d55816129a3565b92915050565b60008060408385031215611d6e57600080fd5b6000611d7c85828601611c2a565b9250506020611d8d85828601611d31565b9150509250929050565b600060208284031215611da957600080fd5b6000611db784828501611cb3565b91505092915050565b60008060408385031215611dd357600080fd5b6000611de185828601611cc8565b9250506020611df285828601611d31565b9150509250929050565b600080600080600060a08688031215611e1457600080fd5b600086013567ffffffffffffffff811115611e2e57600080fd5b611e3a88828901611cdd565b955050602086013567ffffffffffffffff811115611e5757600080fd5b611e6388828901611cdd565b945050604086013567ffffffffffffffff811115611e8057600080fd5b611e8c88828901611cdd565b935050606086013567ffffffffffffffff811115611ea957600080fd5b611eb588828901611c3f565b9250506080611ec688828901611d31565b9150509295509295909350565b600060208284031215611ee557600080fd5b6000611ef384828501611d31565b91505092915050565b600060208284031215611f0e57600080fd5b6000611f1c84828501611d46565b91505092915050565b60008060408385031215611f3857600080fd5b6000611f4685828601611d31565b925050602083013567ffffffffffffffff811115611f6357600080fd5b611f6f85828601611cdd565b9150509250929050565b60008060408385031215611f8c57600080fd5b6000611f9a85828601611d31565b9250506020611fab85828601611d31565b9150509250929050565b6000611fc183836122e2565b60208301905092915050565b611fd681612890565b82525050565b611fe58161283e565b82525050565b611ffc611ff78261283e565b612908565b82525050565b61200b8161282c565b82525050565b600061201c826127cb565b61202681856127f9565b9350612031836127bb565b8060005b838110156120625781516120498882611fb5565b9750612054836127ec565b925050600181019050612035565b5085935050505092915050565b61207881612850565b82525050565b6120878161285c565b82525050565b61209e6120998261285c565b61291a565b82525050565b60006120af826127d6565b6120b9818561280a565b93506120c98185602086016128d5565b6120d281612940565b840191505092915050565b60006120e8826127e1565b6120f2818561281b565b93506121028185602086016128d5565b61210b81612940565b840191505092915050565b600061212360238361281b565b91507f596f7520616c726561647920776f6e20666f72207468697320636f6c6c65637460008301527f696f6e00000000000000000000000000000000000000000000000000000000006020830152604082019050919050565b6000612189601b8361281b565b91507f536166654d6174683a206164646974696f6e206f766572666c6f7700000000006000830152602082019050919050565b60006121c9602b8361281b565b91507f4e6f7420656e6f756768204c494e4b202d2066696c6c20636f6e74726163742060008301527f77697468206661756365740000000000000000000000000000000000000000006020830152604082019050919050565b600061222f60128361281b565b91507f556e61626c6520746f207472616e7366657200000000000000000000000000006000830152602082019050919050565b600061226f601f8361281b565b91507f4f6e6c7920565246436f6f7264696e61746f722063616e2066756c66696c6c006000830152602082019050919050565b60006122af601f8361281b565b91507f596f7520646964206e6f74206861766520616c6c2074686520706965636573006000830152602082019050919050565b6122eb81612886565b82525050565b6122fa81612886565b82525050565b61231161230c82612886565b612936565b82525050565b6000612323828561208d565b6020820191506123338284612300565b6020820191508190509392505050565b600061234f8286612300565b60208201915061235f8285612300565b60208201915061236f8284611feb565b601482019150819050949350505050565b60006020820190506123956000830184612002565b92915050565b60006040820190506123b06000830185611fcd565b6123bd60208301846122f1565b9392505050565b60006060820190506123d96000830186612002565b6123e660208301856122f1565b81810360408301526123f881846120a4565b9050949350505050565b6000602082019050818103600083015261241c8184612011565b905092915050565b6000604082019050818103600083015261243e8185612011565b905061244d6020830184611fdc565b9392505050565b6000602082019050612469600083018461206f565b92915050565b6000602082019050612484600083018461207e565b92915050565b600060408201905061249f600083018561207e565b6124ac60208301846122f1565b9392505050565b60006080820190506124c8600083018761207e565b6124d560208301866122f1565b6124e26040830185612002565b6124ef60608301846122f1565b95945050505050565b6000602082019050818103600083015261251181612116565b9050919050565b600060208201905081810360008301526125318161217c565b9050919050565b60006020820190508181036000830152612551816121bc565b9050919050565b6000602082019050818103600083015261257181612222565b9050919050565b6000602082019050818103600083015261259181612262565b9050919050565b600060208201905081810360008301526125b1816122a2565b9050919050565b60006020820190506125cd60008301846122f1565b92915050565b600060e0820190506125e8600083018a6122f1565b81810360208301526125fa81896120dd565b9050818103604083015261260e81886120dd565b9050818103606083015261262281876120dd565b905061263160808301866122f1565b61263e60a08301856122f1565b61264b60c0830184611fdc565b98975050505050505050565b600060408201905061266c60008301856122f1565b61267960208301846122f1565b9392505050565b600060608201905061269560008301866122f1565b6126a260208301856122f1565b6126af6040830184611fdc565b949350505050565b60006080820190506126cc60008301876122f1565b6126d960208301866122f1565b81810360408301526126eb81856120dd565b90506126fa6060830184611fdc565b95945050505050565b600060608201905061271860008301866122f1565b61272560208301856122f1565b61273260408301846122f1565b949350505050565b6000604051905081810181811067ffffffffffffffff8211171561275d57600080fd5b8060405250919050565b600067ffffffffffffffff82111561277e57600080fd5b602082029050602081019050919050565b600067ffffffffffffffff8211156127a657600080fd5b601f19601f8301169050602081019050919050565b6000819050602082019050919050565b600081519050919050565b600081519050919050565b600081519050919050565b6000602082019050919050565b600082825260208201905092915050565b600082825260208201905092915050565b600082825260208201905092915050565b600061283782612866565b9050919050565b600061284982612866565b9050919050565b60008115159050919050565b6000819050919050565b600073ffffffffffffffffffffffffffffffffffffffff82169050919050565b6000819050919050565b600061289b826128a2565b9050919050565b60006128ad826128b4565b9050919050565b60006128bf82612866565b9050919050565b82818337600083830152505050565b60005b838110156128f35780820151818401526020810190506128d8565b83811115612902576000848401525b50505050565b600061291382612924565b9050919050565b6000819050919050565b600061292f82612951565b9050919050565b6000819050919050565b6000601f19601f8301169050919050565b60008160601b9050919050565b6129678161282c565b811461297257600080fd5b50565b61297e81612850565b811461298957600080fd5b50565b6129958161285c565b81146129a057600080fd5b50565b6129ac81612886565b81146129b757600080fd5b5056fea26469706673582212209280cd8edcb0497f9c3825c27e49560baeae226236938e15b396b5ec3f52846264736f6c634300060c0033",
  "linkReferences": {},
  "deployedLinkReferences": {}
}